{
  "contractName": "BankUpdated",
  "abi": [
    {
      "inputs": [],
      "stateMutability": "nonpayable",
      "type": "constructor"
    },
    {
      "anonymous": false,
      "inputs": [
        {
          "indexed": false,
          "internalType": "uint256",
          "name": "amount",
          "type": "uint256"
        },
        {
          "indexed": false,
          "internalType": "uint256",
          "name": "timeLock",
          "type": "uint256"
        },
        {
          "indexed": false,
          "internalType": "address",
          "name": "client",
          "type": "address"
        }
      ],
      "name": "locksuccess",
      "type": "event"
    },
    {
      "anonymous": false,
      "inputs": [
        {
          "indexed": false,
          "internalType": "uint256",
          "name": "amount",
          "type": "uint256"
        },
        {
          "indexed": false,
          "internalType": "address",
          "name": "client",
          "type": "address"
        },
        {
          "indexed": false,
          "internalType": "address",
          "name": "reserveClient",
          "type": "address"
        }
      ],
      "name": "withdrawReservesuccess",
      "type": "event"
    },
    {
      "anonymous": false,
      "inputs": [
        {
          "indexed": false,
          "internalType": "uint256",
          "name": "amount",
          "type": "uint256"
        },
        {
          "indexed": false,
          "internalType": "address",
          "name": "client",
          "type": "address"
        }
      ],
      "name": "withdrawsuccess",
      "type": "event"
    },
    {
      "inputs": [],
      "name": "_initialized",
      "outputs": [
        {
          "internalType": "bool",
          "name": "",
          "type": "bool"
        }
      ],
      "stateMutability": "view",
      "type": "function"
    },
    {
      "inputs": [
        {
          "internalType": "address",
          "name": "",
          "type": "address"
        }
      ],
      "name": "balances",
      "outputs": [
        {
          "internalType": "uint256",
          "name": "",
          "type": "uint256"
        }
      ],
      "stateMutability": "view",
      "type": "function"
    },
    {
      "inputs": [
        {
          "internalType": "address",
          "name": "",
          "type": "address"
        },
        {
          "internalType": "uint256",
          "name": "",
          "type": "uint256"
        }
      ],
      "name": "locking",
      "outputs": [
        {
          "internalType": "uint256",
          "name": "amount",
          "type": "uint256"
        },
        {
          "internalType": "uint256",
          "name": "timerStart",
          "type": "uint256"
        },
        {
          "internalType": "uint256",
          "name": "timerEnd",
          "type": "uint256"
        },
        {
          "internalType": "uint256",
          "name": "timeFirstWithdraw",
          "type": "uint256"
        },
        {
          "internalType": "uint256",
          "name": "timeForWithdraw",
          "type": "uint256"
        },
        {
          "internalType": "uint256",
          "name": "lastWithdraw",
          "type": "uint256"
        },
        {
          "internalType": "address",
          "name": "reserveAccount",
          "type": "address"
        },
        {
          "internalType": "bool",
          "name": "reserveActive",
          "type": "bool"
        }
      ],
      "stateMutability": "view",
      "type": "function"
    },
    {
      "inputs": [],
      "name": "owner",
      "outputs": [
        {
          "internalType": "address",
          "name": "",
          "type": "address"
        }
      ],
      "stateMutability": "view",
      "type": "function"
    },
    {
      "inputs": [
        {
          "internalType": "address",
          "name": "_owner",
          "type": "address"
        }
      ],
      "name": "initialize",
      "outputs": [],
      "stateMutability": "nonpayable",
      "type": "function"
    },
    {
      "inputs": [
        {
          "internalType": "uint256",
          "name": "newfee",
          "type": "uint256"
        }
      ],
      "name": "changeFee",
      "outputs": [],
      "stateMutability": "nonpayable",
      "type": "function"
    },
    {
      "inputs": [],
      "name": "revenueWithdraw",
      "outputs": [],
      "stateMutability": "nonpayable",
      "type": "function"
    },
    {
      "inputs": [],
      "name": "contractBalance",
      "outputs": [
        {
          "internalType": "uint256",
          "name": "",
          "type": "uint256"
        }
      ],
      "stateMutability": "view",
      "type": "function"
    },
    {
      "inputs": [],
      "name": "checktimestamp",
      "outputs": [
        {
          "internalType": "uint256",
          "name": "",
          "type": "uint256"
        }
      ],
      "stateMutability": "view",
      "type": "function"
    },
    {
      "inputs": [
        {
          "internalType": "uint256",
          "name": "order",
          "type": "uint256"
        }
      ],
      "name": "depositcheck",
      "outputs": [
        {
          "components": [
            {
              "internalType": "uint256",
              "name": "amount",
              "type": "uint256"
            },
            {
              "internalType": "uint256",
              "name": "timerStart",
              "type": "uint256"
            },
            {
              "internalType": "uint256",
              "name": "timerEnd",
              "type": "uint256"
            },
            {
              "internalType": "uint256",
              "name": "timeFirstWithdraw",
              "type": "uint256"
            },
            {
              "internalType": "uint256",
              "name": "timeForWithdraw",
              "type": "uint256"
            },
            {
              "internalType": "uint256",
              "name": "lastWithdraw",
              "type": "uint256"
            },
            {
              "internalType": "address",
              "name": "reserveAccount",
              "type": "address"
            },
            {
              "internalType": "bool",
              "name": "reserveActive",
              "type": "bool"
            }
          ],
          "internalType": "struct Storage.timeLock",
          "name": "",
          "type": "tuple"
        }
      ],
      "stateMutability": "view",
      "type": "function"
    },
    {
      "inputs": [
        {
          "internalType": "uint256",
          "name": "_timelock",
          "type": "uint256"
        },
        {
          "internalType": "uint256",
          "name": "_firstWithdraw",
          "type": "uint256"
        },
        {
          "internalType": "uint256",
          "name": "_nextWithdraw",
          "type": "uint256"
        },
        {
          "internalType": "address",
          "name": "_reserveAccount",
          "type": "address"
        }
      ],
      "name": "lockDay",
      "outputs": [],
      "stateMutability": "payable",
      "type": "function"
    },
    {
      "inputs": [
        {
          "internalType": "uint256",
          "name": "_timelock",
          "type": "uint256"
        },
        {
          "internalType": "uint256",
          "name": "_firstWithdraw",
          "type": "uint256"
        },
        {
          "internalType": "uint256",
          "name": "_nextWithdraw",
          "type": "uint256"
        },
        {
          "internalType": "address",
          "name": "_reserveAccount",
          "type": "address"
        }
      ],
      "name": "lockWeeks",
      "outputs": [],
      "stateMutability": "payable",
      "type": "function"
    },
    {
      "inputs": [
        {
          "internalType": "uint256",
          "name": "_timelock",
          "type": "uint256"
        },
        {
          "internalType": "uint256",
          "name": "_firstWithdraw",
          "type": "uint256"
        },
        {
          "internalType": "uint256",
          "name": "_nextWithdraw",
          "type": "uint256"
        },
        {
          "internalType": "address",
          "name": "_reserveAccount",
          "type": "address"
        }
      ],
      "name": "lockMonths",
      "outputs": [],
      "stateMutability": "payable",
      "type": "function"
    },
    {
      "inputs": [
        {
          "internalType": "uint256",
          "name": "order",
          "type": "uint256"
        }
      ],
      "name": "withdraw",
      "outputs": [],
      "stateMutability": "nonpayable",
      "type": "function"
    },
    {
      "inputs": [
        {
          "internalType": "uint256",
          "name": "order",
          "type": "uint256"
        }
      ],
      "name": "withdrawFirst",
      "outputs": [],
      "stateMutability": "nonpayable",
      "type": "function"
    },
    {
      "inputs": [
        {
          "internalType": "address",
          "name": "client",
          "type": "address"
        },
        {
          "internalType": "uint256",
          "name": "order",
          "type": "uint256"
        }
      ],
      "name": "ReserveOrderActivation",
      "outputs": [],
      "stateMutability": "nonpayable",
      "type": "function"
    },
    {
      "inputs": [
        {
          "internalType": "address",
          "name": "client",
          "type": "address"
        },
        {
          "internalType": "uint256",
          "name": "order",
          "type": "uint256"
        }
      ],
      "name": "ReserveWithdraw",
      "outputs": [],
      "stateMutability": "nonpayable",
      "type": "function"
    }
  ],
  "bytecode": "0x60806040523480156200001157600080fd5b5062000023336200002960201b60201c565b620000a3565b600760149054906101000a900460ff16156200004457600080fd5b80600760006101000a81548173ffffffffffffffffffffffffffffffffffffffff021916908373ffffffffffffffffffffffffffffffffffffffff1602179055506001600760146101000a81548160ff02191690831515021790555050565b6139e880620000b36000396000f3fe6080604052600436106100fe5760003560e01c80636a1db1bf116100955780638da5cb5b116100645780638da5cb5b1461030a578063bfd4ce5c14610335578063c4d66de814610351578063e85df9ac1461037a578063ea16fa5f146103a3576100fe565b80636a1db1bf1461025057806374344605146102795780637b8823fa146102a25780638b7afe2e146102df576100fe565b80632e1a7d4d116100d15780632e1a7d4d146101c45780633072cf60146101ed57806331801695146102185780633b48a5f114610234576100fe565b80630277c105146101035780630529afc41461011a57806311ecde2c1461014357806327e235e314610187575b600080fd5b34801561010f57600080fd5b506101186103ce565b005b34801561012657600080fd5b50610141600480360381019061013c9190612f23565b6104f4565b005b34801561014f57600080fd5b5061016a60048036038101906101659190612f23565b610da2565b60405161017e9897969594939291906136e6565b60405180910390f35b34801561019357600080fd5b506101ae60048036038101906101a99190612efa565b610e34565b6040516101bb9190613634565b60405180910390f35b3480156101d057600080fd5b506101eb60048036038101906101e69190612f5f565b610e4c565b005b3480156101f957600080fd5b50610202611572565b60405161020f919061347d565b60405180910390f35b610232600480360381019061022d9190612f88565b611585565b005b61024e60048036038101906102499190612f88565b61191f565b005b34801561025c57600080fd5b5061027760048036038101906102729190612f5f565b611cbb565b005b34801561028557600080fd5b506102a0600480360381019061029b9190612f5f565b611d39565b005b3480156102ae57600080fd5b506102c960048036038101906102c49190612f5f565b612481565b6040516102d69190613618565b60405180910390f35b3480156102eb57600080fd5b506102f4612653565b6040516103019190613634565b60405180910390f35b34801561031657600080fd5b5061031f61265b565b60405161032c9190613462565b60405180910390f35b61034f600480360381019061034a9190612f88565b612681565b005b34801561035d57600080fd5b5061037860048036038101906103739190612efa565b612a21565b005b34801561038657600080fd5b506103a1600480360381019061039c9190612f23565b612a9a565b005b3480156103af57600080fd5b506103b8612e6b565b6040516103c59190613634565b60405180910390f35b600760009054906101000a900473ffffffffffffffffffffffffffffffffffffffff1673ffffffffffffffffffffffffffffffffffffffff163373ffffffffffffffffffffffffffffffffffffffff161461042857600080fd5b600760009054906101000a900473ffffffffffffffffffffffffffffffffffffffff1673ffffffffffffffffffffffffffffffffffffffff166108fc60066000600760009054906101000a900473ffffffffffffffffffffffffffffffffffffffff1673ffffffffffffffffffffffffffffffffffffffff1673ffffffffffffffffffffffffffffffffffffffff168152602001908152602001600020549081150290604051600060405180830381858888f193505050501580156104f1573d6000803e3d6000fd5b50565b3373ffffffffffffffffffffffffffffffffffffffff168273ffffffffffffffffffffffffffffffffffffffff161415610563576040517f08c379a000000000000000000000000000000000000000000000000000000000815260040161055a90613598565b60405180910390fd5b3373ffffffffffffffffffffffffffffffffffffffff16600560008473ffffffffffffffffffffffffffffffffffffffff1673ffffffffffffffffffffffffffffffffffffffff16815260200190815260200160002082815481106105f1577f4e487b7100000000000000000000000000000000000000000000000000000000600052603260045260246000fd5b906000526020600020906007020160060160009054906101000a900473ffffffffffffffffffffffffffffffffffffffff1673ffffffffffffffffffffffffffffffffffffffff1614610679576040517f08c379a0000000000000000000000000000000000000000000000000000000008152600401610670906134f8565b60405180910390fd5b60011515600560008473ffffffffffffffffffffffffffffffffffffffff1673ffffffffffffffffffffffffffffffffffffffff16815260200190815260200160002082815481106106f4577f4e487b7100000000000000000000000000000000000000000000000000000000600052603260045260246000fd5b906000526020600020906007020160060160149054906101000a900460ff16151514610755576040517f08c379a000000000000000000000000000000000000000000000000000000000815260040161074c90613578565b60405180910390fd5b600560008373ffffffffffffffffffffffffffffffffffffffff1673ffffffffffffffffffffffffffffffffffffffff16815260200190815260200160002081815481106107cc577f4e487b7100000000000000000000000000000000000000000000000000000000600052603260045260246000fd5b906000526020600020906007020160020154421015610820576040517f08c379a000000000000000000000000000000000000000000000000000000000815260040161081790613558565b60405180910390fd5b6000600560008473ffffffffffffffffffffffffffffffffffffffff1673ffffffffffffffffffffffffffffffffffffffff1681526020019081526020016000208281548110610899577f4e487b7100000000000000000000000000000000000000000000000000000000600052603260045260246000fd5b90600052602060002090600702016000015490506000600560008573ffffffffffffffffffffffffffffffffffffffff1673ffffffffffffffffffffffffffffffffffffffff1681526020019081526020016000208381548110610926577f4e487b7100000000000000000000000000000000000000000000000000000000600052603260045260246000fd5b9060005260206000209060070201600001819055503373ffffffffffffffffffffffffffffffffffffffff166108fc829081150290604051600060405180830381858888f19350505050158015610981573d6000803e3d6000fd5b5080600660008573ffffffffffffffffffffffffffffffffffffffff1673ffffffffffffffffffffffffffffffffffffffff168152602001908152602001600020546109cd9190613861565b600660008573ffffffffffffffffffffffffffffffffffffffff1673ffffffffffffffffffffffffffffffffffffffff168152602001908152602001600020819055507f6fa67b9d47155b80d6376dfe234984050abe51ca75edc7748407e25288578c66818433604051610a4393929190613678565b60405180910390a160008290505b6001600560008673ffffffffffffffffffffffffffffffffffffffff1673ffffffffffffffffffffffffffffffffffffffff16815260200190815260200160002080549050610aa09190613861565b811015610ca357600560008573ffffffffffffffffffffffffffffffffffffffff1673ffffffffffffffffffffffffffffffffffffffff168152602001908152602001600020600182610af39190613780565b81548110610b2a577f4e487b7100000000000000000000000000000000000000000000000000000000600052603260045260246000fd5b9060005260206000209060070201600560008673ffffffffffffffffffffffffffffffffffffffff1673ffffffffffffffffffffffffffffffffffffffff1681526020019081526020016000208281548110610baf577f4e487b7100000000000000000000000000000000000000000000000000000000600052603260045260246000fd5b90600052602060002090600702016000820154816000015560018201548160010155600282015481600201556003820154816003015560048201548160040155600582015481600501556006820160009054906101000a900473ffffffffffffffffffffffffffffffffffffffff168160060160006101000a81548173ffffffffffffffffffffffffffffffffffffffff021916908373ffffffffffffffffffffffffffffffffffffffff1602179055506006820160149054906101000a900460ff168160060160146101000a81548160ff0219169083151502179055509050508080610c9b906138dd565b915050610a51565b50600560008473ffffffffffffffffffffffffffffffffffffffff1673ffffffffffffffffffffffffffffffffffffffff168152602001908152602001600020805480610d19577f4e487b7100000000000000000000000000000000000000000000000000000000600052603160045260246000fd5b6001900381819060005260206000209060070201600080820160009055600182016000905560028201600090556003820160009055600482016000905560058201600090556006820160006101000a81549073ffffffffffffffffffffffffffffffffffffffff02191690556006820160146101000a81549060ff021916905550509055505050565b60056020528160005260406000208181548110610dbe57600080fd5b9060005260206000209060070201600091509150508060000154908060010154908060020154908060030154908060040154908060050154908060060160009054906101000a900473ffffffffffffffffffffffffffffffffffffffff16908060060160149054906101000a900460ff16905088565b60066020528060005260406000206000915090505481565b600560003373ffffffffffffffffffffffffffffffffffffffff1673ffffffffffffffffffffffffffffffffffffffff1681526020019081526020016000208181548110610ec3577f4e487b7100000000000000000000000000000000000000000000000000000000600052603260045260246000fd5b906000526020600020906007020160020154421015610f17576040517f08c379a0000000000000000000000000000000000000000000000000000000008152600401610f0e906134b8565b60405180910390fd5b60001515600560003373ffffffffffffffffffffffffffffffffffffffff1673ffffffffffffffffffffffffffffffffffffffff1681526020019081526020016000208281548110610f92577f4e487b7100000000000000000000000000000000000000000000000000000000600052603260045260246000fd5b906000526020600020906007020160060160149054906101000a900460ff16151514610ff3576040517f08c379a0000000000000000000000000000000000000000000000000000000008152600401610fea906135b8565b60405180910390fd5b6000600560003373ffffffffffffffffffffffffffffffffffffffff1673ffffffffffffffffffffffffffffffffffffffff168152602001908152602001600020828154811061106c577f4e487b7100000000000000000000000000000000000000000000000000000000600052603260045260246000fd5b90600052602060002090600702016000015490506000600560003373ffffffffffffffffffffffffffffffffffffffff1673ffffffffffffffffffffffffffffffffffffffff16815260200190815260200160002083815481106110f9577f4e487b7100000000000000000000000000000000000000000000000000000000600052603260045260246000fd5b9060005260206000209060070201600001819055503373ffffffffffffffffffffffffffffffffffffffff166108fc829081150290604051600060405180830381858888f19350505050158015611154573d6000803e3d6000fd5b5080600660003373ffffffffffffffffffffffffffffffffffffffff1673ffffffffffffffffffffffffffffffffffffffff168152602001908152602001600020546111a09190613861565b600660003373ffffffffffffffffffffffffffffffffffffffff1673ffffffffffffffffffffffffffffffffffffffff168152602001908152602001600020819055507f1daff502185bbcafc1ab01b993a58debbb2985d2d10320c7209bac50c296f111813360405161121492919061364f565b60405180910390a160008290505b6001600560003373ffffffffffffffffffffffffffffffffffffffff1673ffffffffffffffffffffffffffffffffffffffff168152602001908152602001600020805490506112719190613861565b81101561147457600560003373ffffffffffffffffffffffffffffffffffffffff1673ffffffffffffffffffffffffffffffffffffffff1681526020019081526020016000206001826112c49190613780565b815481106112fb577f4e487b7100000000000000000000000000000000000000000000000000000000600052603260045260246000fd5b9060005260206000209060070201600560003373ffffffffffffffffffffffffffffffffffffffff1673ffffffffffffffffffffffffffffffffffffffff1681526020019081526020016000208281548110611380577f4e487b7100000000000000000000000000000000000000000000000000000000600052603260045260246000fd5b90600052602060002090600702016000820154816000015560018201548160010155600282015481600201556003820154816003015560048201548160040155600582015481600501556006820160009054906101000a900473ffffffffffffffffffffffffffffffffffffffff168160060160006101000a81548173ffffffffffffffffffffffffffffffffffffffff021916908373ffffffffffffffffffffffffffffffffffffffff1602179055506006820160149054906101000a900460ff168160060160146101000a81548160ff021916908315150217905550905050808061146c906138dd565b915050611222565b50600560003373ffffffffffffffffffffffffffffffffffffffff1673ffffffffffffffffffffffffffffffffffffffff1681526020019081526020016000208054806114ea577f4e487b7100000000000000000000000000000000000000000000000000000000600052603160045260246000fd5b6001900381819060005260206000209060070201600080820160009055600182016000905560028201600090556003820160009055600482016000905560058201600090556006820160006101000a81549073ffffffffffffffffffffffffffffffffffffffff02191690556006820160146101000a81549060ff0219169055505090555050565b600760149054906101000a900460ff1681565b600080600034905060006064600060405161159f9061344d565b908152602001604051809103902054836115b99190613807565b6115c391906137d6565b905062093a80886115d49190613807565b426115df9190613780565b935062093a80876115f09190613807565b426115fb9190613780565b9250600060405180610100016040528083856116179190613861565b8152602001428152602001868152602001858152602001888152602001600081526020018773ffffffffffffffffffffffffffffffffffffffff168152602001600015158152509050600560003373ffffffffffffffffffffffffffffffffffffffff1673ffffffffffffffffffffffffffffffffffffffff168152602001908152602001600020819080600181540180825580915050600190039060005260206000209060070201600090919091909150600082015181600001556020820151816001015560408201518160020155606082015181600301556080820151816004015560a0820151816005015560c08201518160060160006101000a81548173ffffffffffffffffffffffffffffffffffffffff021916908373ffffffffffffffffffffffffffffffffffffffff16021790555060e08201518160060160146101000a81548160ff0219169083151502179055505050818361177a9190613861565b600660003373ffffffffffffffffffffffffffffffffffffffff1673ffffffffffffffffffffffffffffffffffffffff168152602001908152602001600020546117c49190613780565b600660003373ffffffffffffffffffffffffffffffffffffffff1673ffffffffffffffffffffffffffffffffffffffff168152602001908152602001600020819055508160066000600760009054906101000a900473ffffffffffffffffffffffffffffffffffffffff1673ffffffffffffffffffffffffffffffffffffffff1673ffffffffffffffffffffffffffffffffffffffff168152602001908152602001600020546118749190613780565b60066000600760009054906101000a900473ffffffffffffffffffffffffffffffffffffffff1673ffffffffffffffffffffffffffffffffffffffff1673ffffffffffffffffffffffffffffffffffffffff168152602001908152602001600020819055507f1a81bdd9a7a8bb6fdf26fda7dbdfd85fd8969f51d23e9a4d2b84c516654c5e0934863360405161190c939291906136af565b60405180910390a1505050505050505050565b60008060003490506000606460006040516119399061344d565b908152602001604051809103902054836119539190613807565b61195d91906137d6565b9050630114db008861196f9190613807565b4261197a9190613780565b9350630114db008761198c9190613807565b426119979190613780565b9250600060405180610100016040528083856119b39190613861565b8152602001428152602001868152602001858152602001888152602001600081526020018773ffffffffffffffffffffffffffffffffffffffff168152602001600015158152509050600560003373ffffffffffffffffffffffffffffffffffffffff1673ffffffffffffffffffffffffffffffffffffffff168152602001908152602001600020819080600181540180825580915050600190039060005260206000209060070201600090919091909150600082015181600001556020820151816001015560408201518160020155606082015181600301556080820151816004015560a0820151816005015560c08201518160060160006101000a81548173ffffffffffffffffffffffffffffffffffffffff021916908373ffffffffffffffffffffffffffffffffffffffff16021790555060e08201518160060160146101000a81548160ff02191690831515021790555050508183611b169190613861565b600660003373ffffffffffffffffffffffffffffffffffffffff1673ffffffffffffffffffffffffffffffffffffffff16815260200190815260200160002054611b609190613780565b600660003373ffffffffffffffffffffffffffffffffffffffff1673ffffffffffffffffffffffffffffffffffffffff168152602001908152602001600020819055508160066000600760009054906101000a900473ffffffffffffffffffffffffffffffffffffffff1673ffffffffffffffffffffffffffffffffffffffff1673ffffffffffffffffffffffffffffffffffffffff16815260200190815260200160002054611c109190613780565b60066000600760009054906101000a900473ffffffffffffffffffffffffffffffffffffffff1673ffffffffffffffffffffffffffffffffffffffff1673ffffffffffffffffffffffffffffffffffffffff168152602001908152602001600020819055507f1a81bdd9a7a8bb6fdf26fda7dbdfd85fd8969f51d23e9a4d2b84c516654c5e09348633604051611ca8939291906136af565b60405180910390a1505050505050505050565b600760009054906101000a900473ffffffffffffffffffffffffffffffffffffffff1673ffffffffffffffffffffffffffffffffffffffff163373ffffffffffffffffffffffffffffffffffffffff1614611d1557600080fd5b806000604051611d249061344d565b90815260200160405180910390208190555050565b600560003373ffffffffffffffffffffffffffffffffffffffff1673ffffffffffffffffffffffffffffffffffffffff1681526020019081526020016000208181548110611db0577f4e487b7100000000000000000000000000000000000000000000000000000000600052603260045260246000fd5b9060005260206000209060070201600201544210611e03576040517f08c379a0000000000000000000000000000000000000000000000000000000008152600401611dfa906135d8565b60405180910390fd5b6000600560003373ffffffffffffffffffffffffffffffffffffffff1673ffffffffffffffffffffffffffffffffffffffff1681526020019081526020016000208281548110611e7c577f4e487b7100000000000000000000000000000000000000000000000000000000600052603260045260246000fd5b906000526020600020906007020160010154600560003373ffffffffffffffffffffffffffffffffffffffff1673ffffffffffffffffffffffffffffffffffffffff1681526020019081526020016000208381548110611f05577f4e487b7100000000000000000000000000000000000000000000000000000000600052603260045260246000fd5b906000526020600020906007020160020154611f219190613861565b9050600060646001600560003373ffffffffffffffffffffffffffffffffffffffff1673ffffffffffffffffffffffffffffffffffffffff1681526020019081526020016000208581548110611fa0577f4e487b7100000000000000000000000000000000000000000000000000000000600052603260045260246000fd5b906000526020600020906007020160000154611fbc9190613807565b611fc691906137d6565b9050600560003373ffffffffffffffffffffffffffffffffffffffff1673ffffffffffffffffffffffffffffffffffffffff168152602001908152602001600020838154811061203f577f4e487b7100000000000000000000000000000000000000000000000000000000600052603260045260246000fd5b9060005260206000209060070201600301544211612092576040517f08c379a000000000000000000000000000000000000000000000000000000000815260040161208990613538565b60405180910390fd5b600560003373ffffffffffffffffffffffffffffffffffffffff1673ffffffffffffffffffffffffffffffffffffffff1681526020019081526020016000208381548110612109577f4e487b7100000000000000000000000000000000000000000000000000000000600052603260045260246000fd5b9060005260206000209060070201600301548261212691906137d6565b600560003373ffffffffffffffffffffffffffffffffffffffff1673ffffffffffffffffffffffffffffffffffffffff168152602001908152602001600020848154811061219d577f4e487b7100000000000000000000000000000000000000000000000000000000600052603260045260246000fd5b906000526020600020906007020160050154426121ba9190613861565b116121fa576040517f08c379a00000000000000000000000000000000000000000000000000000000081526004016121f1906135f8565b60405180910390fd5b42600560003373ffffffffffffffffffffffffffffffffffffffff1673ffffffffffffffffffffffffffffffffffffffff1681526020019081526020016000208481548110612272577f4e487b7100000000000000000000000000000000000000000000000000000000600052603260045260246000fd5b90600052602060002090600702016005018190555080600560003373ffffffffffffffffffffffffffffffffffffffff1673ffffffffffffffffffffffffffffffffffffffff16815260200190815260200160002084815481106122ff577f4e487b7100000000000000000000000000000000000000000000000000000000600052603260045260246000fd5b90600052602060002090600702016000015461231b9190613861565b600560003373ffffffffffffffffffffffffffffffffffffffff1673ffffffffffffffffffffffffffffffffffffffff1681526020019081526020016000208481548110612392577f4e487b7100000000000000000000000000000000000000000000000000000000600052603260045260246000fd5b9060005260206000209060070201600001819055503373ffffffffffffffffffffffffffffffffffffffff166108fc829081150290604051600060405180830381858888f193505050501580156123ed573d6000803e3d6000fd5b5080600660003373ffffffffffffffffffffffffffffffffffffffff1673ffffffffffffffffffffffffffffffffffffffff168152602001908152602001600020546124399190613861565b600660003373ffffffffffffffffffffffffffffffffffffffff1673ffffffffffffffffffffffffffffffffffffffff16815260200190815260200160002081905550505050565b612489612e73565b600560003373ffffffffffffffffffffffffffffffffffffffff1673ffffffffffffffffffffffffffffffffffffffff1681526020019081526020016000208054905082111561250e576040517f08c379a0000000000000000000000000000000000000000000000000000000008152600401612505906134d8565b60405180910390fd5b600560003373ffffffffffffffffffffffffffffffffffffffff1673ffffffffffffffffffffffffffffffffffffffff1681526020019081526020016000208281548110612585577f4e487b7100000000000000000000000000000000000000000000000000000000600052603260045260246000fd5b9060005260206000209060070201604051806101000160405290816000820154815260200160018201548152602001600282015481526020016003820154815260200160048201548152602001600582015481526020016006820160009054906101000a900473ffffffffffffffffffffffffffffffffffffffff1673ffffffffffffffffffffffffffffffffffffffff1673ffffffffffffffffffffffffffffffffffffffff1681526020016006820160149054906101000a900460ff1615151515815250509050919050565b600047905090565b600760009054906101000a900473ffffffffffffffffffffffffffffffffffffffff1681565b600080600034905060006064600060405161269b9061344d565b908152602001604051809103902054836126b59190613807565b6126bf91906137d6565b9050600081836126cf9190613861565b905062015180896126e09190613807565b426126eb9190613780565b945062015180886126fc9190613807565b426127079190613780565b9350600060405180610100016040528084866127239190613861565b8152602001428152602001878152602001868152602001898152602001600081526020018873ffffffffffffffffffffffffffffffffffffffff168152602001600015158152509050600560003373ffffffffffffffffffffffffffffffffffffffff1673ffffffffffffffffffffffffffffffffffffffff168152602001908152602001600020819080600181540180825580915050600190039060005260206000209060070201600090919091909150600082015181600001556020820151816001015560408201518160020155606082015181600301556080820151816004015560a0820151816005015560c08201518160060160006101000a81548173ffffffffffffffffffffffffffffffffffffffff021916908373ffffffffffffffffffffffffffffffffffffffff16021790555060e08201518160060160146101000a81548160ff021916908315150217905550505081600660003373ffffffffffffffffffffffffffffffffffffffff1673ffffffffffffffffffffffffffffffffffffffff168152602001908152602001600020546128c59190613780565b600660003373ffffffffffffffffffffffffffffffffffffffff1673ffffffffffffffffffffffffffffffffffffffff168152602001908152602001600020819055508260066000600760009054906101000a900473ffffffffffffffffffffffffffffffffffffffff1673ffffffffffffffffffffffffffffffffffffffff1673ffffffffffffffffffffffffffffffffffffffff168152602001908152602001600020546129759190613780565b60066000600760009054906101000a900473ffffffffffffffffffffffffffffffffffffffff1673ffffffffffffffffffffffffffffffffffffffff1673ffffffffffffffffffffffffffffffffffffffff168152602001908152602001600020819055507f1a81bdd9a7a8bb6fdf26fda7dbdfd85fd8969f51d23e9a4d2b84c516654c5e09348733604051612a0d939291906136af565b60405180910390a150505050505050505050565b600760149054906101000a900460ff1615612a3b57600080fd5b80600760006101000a81548173ffffffffffffffffffffffffffffffffffffffff021916908373ffffffffffffffffffffffffffffffffffffffff1602179055506001600760146101000a81548160ff02191690831515021790555050565b3373ffffffffffffffffffffffffffffffffffffffff168273ffffffffffffffffffffffffffffffffffffffff161415612b09576040517f08c379a0000000000000000000000000000000000000000000000000000000008152600401612b0090613598565b60405180910390fd5b3373ffffffffffffffffffffffffffffffffffffffff16600560008473ffffffffffffffffffffffffffffffffffffffff1673ffffffffffffffffffffffffffffffffffffffff1681526020019081526020016000208281548110612b97577f4e487b7100000000000000000000000000000000000000000000000000000000600052603260045260246000fd5b906000526020600020906007020160060160009054906101000a900473ffffffffffffffffffffffffffffffffffffffff1673ffffffffffffffffffffffffffffffffffffffff1614612c1f576040517f08c379a0000000000000000000000000000000000000000000000000000000008152600401612c16906134f8565b60405180910390fd5b60011515600560008473ffffffffffffffffffffffffffffffffffffffff1673ffffffffffffffffffffffffffffffffffffffff1681526020019081526020016000208281548110612c9a577f4e487b7100000000000000000000000000000000000000000000000000000000600052603260045260246000fd5b906000526020600020906007020160060160149054906101000a900460ff1615151415612cfc576040517f08c379a0000000000000000000000000000000000000000000000000000000008152600401612cf390613498565b60405180910390fd5b600560008373ffffffffffffffffffffffffffffffffffffffff1673ffffffffffffffffffffffffffffffffffffffff1681526020019081526020016000208181548110612d73577f4e487b7100000000000000000000000000000000000000000000000000000000600052603260045260246000fd5b9060005260206000209060070201600201544210612dc6576040517f08c379a0000000000000000000000000000000000000000000000000000000008152600401612dbd90613518565b60405180910390fd5b6001600560008473ffffffffffffffffffffffffffffffffffffffff1673ffffffffffffffffffffffffffffffffffffffff1681526020019081526020016000208281548110612e3f577f4e487b7100000000000000000000000000000000000000000000000000000000600052603260045260246000fd5b906000526020600020906007020160060160146101000a81548160ff0219169083151502179055505050565b600042905090565b604051806101000160405280600081526020016000815260200160008152602001600081526020016000815260200160008152602001600073ffffffffffffffffffffffffffffffffffffffff1681526020016000151581525090565b600081359050612edf81613984565b92915050565b600081359050612ef48161399b565b92915050565b600060208284031215612f0c57600080fd5b6000612f1a84828501612ed0565b91505092915050565b60008060408385031215612f3657600080fd5b6000612f4485828601612ed0565b9250506020612f5585828601612ee5565b9150509250929050565b600060208284031215612f7157600080fd5b6000612f7f84828501612ee5565b91505092915050565b60008060008060808587031215612f9e57600080fd5b6000612fac87828801612ee5565b9450506020612fbd87828801612ee5565b9350506040612fce87828801612ee5565b9250506060612fdf87828801612ed0565b91505092959194509250565b612ff481613895565b82525050565b61300381613895565b82525050565b613012816138a7565b82525050565b613021816138a7565b82525050565b6000613034602383613764565b91507f526573657276652077697468647261772020616c72656164792061637469766160008301527f74656400000000000000000000000000000000000000000000000000000000006020830152604082019050919050565b600061309a600f83613764565b91507f4e6f7420657870697265642079657400000000000000000000000000000000006000830152602082019050919050565b60006130da600483613764565b91507f4e6f7065000000000000000000000000000000000000000000000000000000006000830152602082019050919050565b600061311a601383613764565b91507f596f7520617265206e6f7420616c6c6f776564000000000000000000000000006000830152602082019050919050565b600061315a600f83613764565b91507f416c7265616479206578706972656400000000000000000000000000000000006000830152602082019050919050565b600061319a601b83613764565b91507f43616e277420737461727420746f2077697468647261772079657400000000006000830152602082019050919050565b60006131da600f83613764565b91507f4e6f7420796574206578706972656400000000000000000000000000000000006000830152602082019050919050565b600061321a601e83613764565b91507f52657365727665207769746864726177206e6f742d61637469766174656400006000830152602082019050919050565b600061325a601c83613764565b91507f596f752063616e277420626520796f7572206f776e20636c69656e74000000006000830152602082019050919050565b600061329a600383613775565b91507f66656500000000000000000000000000000000000000000000000000000000006000830152600382019050919050565b60006132da601a83613764565b91507f52657365727665207769746864726177206163746976617465640000000000006000830152602082019050919050565b600061331a601a83613764565b91507f4e6f70652c20796f752063616e20776974686472617720616c6c0000000000006000830152602082019050919050565b600061335a601b83613764565b91507f416c72656164792077697468647261772074686973206d6f6e746800000000006000830152602082019050919050565b610100820160008201516133a4600085018261342f565b5060208201516133b7602085018261342f565b5060408201516133ca604085018261342f565b5060608201516133dd606085018261342f565b5060808201516133f0608085018261342f565b5060a082015161340360a085018261342f565b5060c082015161341660c0850182612feb565b5060e082015161342960e0850182613009565b50505050565b613438816138d3565b82525050565b613447816138d3565b82525050565b60006134588261328d565b9150819050919050565b60006020820190506134776000830184612ffa565b92915050565b60006020820190506134926000830184613018565b92915050565b600060208201905081810360008301526134b181613027565b9050919050565b600060208201905081810360008301526134d18161308d565b9050919050565b600060208201905081810360008301526134f1816130cd565b9050919050565b600060208201905081810360008301526135118161310d565b9050919050565b600060208201905081810360008301526135318161314d565b9050919050565b600060208201905081810360008301526135518161318d565b9050919050565b60006020820190508181036000830152613571816131cd565b9050919050565b600060208201905081810360008301526135918161320d565b9050919050565b600060208201905081810360008301526135b18161324d565b9050919050565b600060208201905081810360008301526135d1816132cd565b9050919050565b600060208201905081810360008301526135f18161330d565b9050919050565b600060208201905081810360008301526136118161334d565b9050919050565b60006101008201905061362e600083018461338d565b92915050565b6000602082019050613649600083018461343e565b92915050565b6000604082019050613664600083018561343e565b6136716020830184612ffa565b9392505050565b600060608201905061368d600083018661343e565b61369a6020830185612ffa565b6136a76040830184612ffa565b949350505050565b60006060820190506136c4600083018661343e565b6136d1602083018561343e565b6136de6040830184612ffa565b949350505050565b6000610100820190506136fc600083018b61343e565b613709602083018a61343e565b613716604083018961343e565b613723606083018861343e565b613730608083018761343e565b61373d60a083018661343e565b61374a60c0830185612ffa565b61375760e0830184613018565b9998505050505050505050565b600082825260208201905092915050565b600081905092915050565b600061378b826138d3565b9150613796836138d3565b9250827fffffffffffffffffffffffffffffffffffffffffffffffffffffffffffffffff038211156137cb576137ca613926565b5b828201905092915050565b60006137e1826138d3565b91506137ec836138d3565b9250826137fc576137fb613955565b5b828204905092915050565b6000613812826138d3565b915061381d836138d3565b9250817fffffffffffffffffffffffffffffffffffffffffffffffffffffffffffffffff048311821515161561385657613855613926565b5b828202905092915050565b600061386c826138d3565b9150613877836138d3565b92508282101561388a57613889613926565b5b828203905092915050565b60006138a0826138b3565b9050919050565b60008115159050919050565b600073ffffffffffffffffffffffffffffffffffffffff82169050919050565b6000819050919050565b60006138e8826138d3565b91507fffffffffffffffffffffffffffffffffffffffffffffffffffffffffffffffff82141561391b5761391a613926565b5b600182019050919050565b7f4e487b7100000000000000000000000000000000000000000000000000000000600052601160045260246000fd5b7f4e487b7100000000000000000000000000000000000000000000000000000000600052601260045260246000fd5b61398d81613895565b811461399857600080fd5b50565b6139a4816138d3565b81146139af57600080fd5b5056fea26469706673582212204325c92a33fd8a88d6c9339237fbe6e6f72e8fcaab8e9d4b5fd2d47cf66da6f064736f6c63430008000033",
  "immutableReferences": {},
  "source": "// SPDX-License-Identifier: MIT\r\npragma solidity >=0.4.22 <0.9.5;\r\npragma experimental ABIEncoderV2;\r\n\r\nimport \"./Storage.sol\";\r\n\r\n// not using msg.value\r\ncontract BankUpdated is Storage{\r\n\r\n    constructor() public{\r\n        initialize(msg.sender);\r\n    }\r\n\r\n    function initialize(address _owner) public{\r\n        require(!_initialized);\r\n        owner = _owner;\r\n        _initialized = true;\r\n    }\r\n    \r\n    modifier onlyOwner(){\r\n        require(msg.sender == owner);\r\n        _;\r\n    }\r\n\r\n    function changeFee(uint256 newfee) public onlyOwner{\r\n        _uintStorage[\"fee\"] = newfee;\r\n    }\r\n\r\n    function revenueWithdraw() public onlyOwner{\r\n        payable(owner).transfer(balances[owner]);\r\n    }\r\n    event locksuccess(uint256 amount, uint256 timeLock, address client);\r\n    event withdrawsuccess(uint256 amount, address client);\r\n    event withdrawReservesuccess(uint256 amount, address client, address reserveClient);\r\n\r\n    function contractBalance() public view returns(uint256){return address(this).balance;}\r\n\r\n    function checktimestamp() public view returns(uint256){\r\n        return block.timestamp;\r\n    }\r\n    \r\n    function depositcheck(uint256 order) public view returns(timeLock memory){\r\n       require(order <= locking[msg.sender].length, \"Nope\"); //onlyOwnlocking but there is the mapping, it is \"Private\"\r\n       return(locking[msg.sender][order]);\r\n    }\r\n\r\n    function lockDay(uint256 _timelock, uint256 _firstWithdraw, uint256 _nextWithdraw, address _reserveAccount /*amount?*/) public payable { //add fee/cost\r\n        uint256 endlock;\r\n        uint256 firstWithdraw;\r\n        uint256 amount = msg.value; // -fee\r\n        uint256 fee = (amount * _uintStorage[\"fee\"])/ 100;\r\n        uint256 tot = amount - fee;\r\n        endlock = block.timestamp + (_timelock * 1 days);\r\n        firstWithdraw = block.timestamp + (_firstWithdraw * 1 days);\r\n\r\n        timeLock memory newlock = timeLock(amount - fee, block.timestamp, endlock, firstWithdraw, _nextWithdraw, 0, _reserveAccount, false);\r\n\r\n        locking[msg.sender].push(newlock);\r\n        balances[msg.sender] = balances[msg.sender] + tot;\r\n        balances[owner] = balances[owner] + fee;\r\n        emit locksuccess(msg.value, endlock, msg.sender);\r\n    }\r\n    function lockWeeks(uint256 _timelock, uint256 _firstWithdraw, uint256 _nextWithdraw, address _reserveAccount  /*amount?*/) public payable { //add fee/cost\r\n        uint256 endlock;\r\n        uint256 firstWithdraw;\r\n        uint256 amount = msg.value; // -fee\r\n        uint256 fee = (amount * _uintStorage[\"fee\"])/ 100;\r\n        endlock = block.timestamp + (_timelock * 1 weeks);\r\n        firstWithdraw = block.timestamp + (_firstWithdraw * 1 weeks);\r\n\r\n        timeLock memory newlock = timeLock(amount - fee, block.timestamp, endlock, firstWithdraw, _nextWithdraw, 0, _reserveAccount, false);\r\n\r\n        locking[msg.sender].push(newlock);\r\n        balances[msg.sender] = balances[msg.sender] + (amount - fee);\r\n        balances[owner] = balances[owner] + fee;\r\n        emit locksuccess(msg.value, endlock, msg.sender);\r\n    }\r\n\r\n    function lockMonths(uint256 _timelock, uint256 _firstWithdraw, uint256 _nextWithdraw, address _reserveAccount /*amount?*/) public payable { //add fee/cost\r\n        uint256 endlock;\r\n        uint256 firstWithdraw;\r\n        uint256 amount = msg.value; // -fee\r\n        uint256 fee = (amount * _uintStorage[\"fee\"])/ 100;\r\n        endlock = block.timestamp + (_timelock * (30* 1 weeks));\r\n        firstWithdraw = block.timestamp + (_firstWithdraw * (30* 1 weeks));\r\n\r\n        timeLock memory newlock = timeLock(amount - fee, block.timestamp, endlock, firstWithdraw, _nextWithdraw, 0, _reserveAccount, false);\r\n\r\n        locking[msg.sender].push(newlock);\r\n        balances[msg.sender] = balances[msg.sender] + (amount - fee);\r\n        balances[owner] = balances[owner] + fee;\r\n        emit locksuccess(msg.value, endlock, msg.sender);\r\n    }\r\n\r\n    function withdraw(uint256 order) public { \r\n        require(block.timestamp >= locking[msg.sender][order].timerEnd, \"Not expired yet\");\r\n        require(locking[msg.sender][order].reserveActive == false, \"Reserve withdraw activated\");\r\n        uint256 amount = locking[msg.sender][order].amount;\r\n        locking[msg.sender][order].amount = 0;\r\n        payable(msg.sender).transfer(amount);\r\n        balances[msg.sender] = balances[msg.sender] - amount;\r\n        emit withdrawsuccess(amount, msg.sender);\r\n        {\r\n            for(uint256 i = order; i < locking[msg.sender].length - 1; i++){\r\n            locking[msg.sender][i] = locking[msg.sender][i+1]; \r\n            }\r\n            locking[msg.sender].pop();\r\n        }\r\n    }\r\n\r\n    function withdrawFirst(uint256 order) public{\r\n\r\n        require(block.timestamp < locking[msg.sender][order].timerEnd, \"Nope, you can withdraw all\");\r\n        \r\n        uint256 Timerstats = locking[msg.sender][order].timerEnd - locking[msg.sender][order].timerStart;\r\n        uint256 amount = (locking[msg.sender][order].amount *1)/ 100;\r\n\r\n        require(block.timestamp > locking[msg.sender][order].timeFirstWithdraw, \"Can't start to withdraw yet\");\r\n        require(block.timestamp - locking[msg.sender][order].lastWithdraw > (Timerstats / locking[msg.sender][order].timeFirstWithdraw), \"Already withdraw this month\");\r\n\r\n        locking[msg.sender][order].lastWithdraw = block.timestamp;\r\n        locking[msg.sender][order].amount = locking[msg.sender][order].amount - amount;\r\n        payable(msg.sender).transfer(amount);\r\n        balances[msg.sender] = balances[msg.sender] - amount;\r\n    }\r\n\r\n    function ReserveOrderActivation(address client, uint256 order) public{\r\n        require(client != msg.sender, \"You can't be your own client\");\r\n        require(locking[client][order].reserveAccount == msg.sender, \"You are not allowed\");\r\n        require(locking[client][order].reserveActive != true, \"Reserve withdraw  already activated\");\r\n        require(block.timestamp < locking[client][order].timerEnd, \"Already expired\");\r\n        locking[client][order].reserveActive = true;\r\n    }\r\n\r\n    function ReserveWithdraw(address client, uint256 order) public{\r\n        require(client != msg.sender, \"You can't be your own client\");\r\n        require(locking[client][order].reserveAccount == msg.sender, \"You are not allowed\");\r\n        require(locking[client][order].reserveActive == true, \"Reserve withdraw not-activated\");\r\n        require(block.timestamp >= locking[client][order].timerEnd, \"Not yet expired\");\r\n\r\n        uint256 amount = locking[client][order].amount;\r\n        locking[client][order].amount = 0;\r\n        payable(msg.sender).transfer(amount);\r\n        balances[client] = balances[client] - amount;\r\n        emit withdrawReservesuccess(amount, client, msg.sender);\r\n        {\r\n            for(uint256 i = order; i < locking[client].length - 1; i++){\r\n            locking[client][i] = locking[client][i+1]; \r\n            }\r\n            locking[client].pop();\r\n        }\r\n    }\r\n    \r\n    //function allowance + use amount and not msg.value\r\n}\r\n",
  "sourcePath": "C:\\Users\\giova\\Smart contracts\\bank\\contracts\\BankUpdated.sol",
  "compiler": {
    "name": "solc",
    "version": "0.8.0+commit.c7dfd78e.Emscripten.clang"
  },
  "schemaVersion": "3.4.3",
  "updatedAt": "2022-03-06T16:27:43.191Z",
  "devdoc": {
    "kind": "dev",
    "methods": {},
    "version": 1
  },
  "userdoc": {
    "kind": "user",
    "methods": {},
    "version": 1
  }
}