{
  "contractName": "Bank",
  "abi": [
    {
      "inputs": [
        {
          "internalType": "uint256",
          "name": "fee",
          "type": "uint256"
        }
      ],
      "stateMutability": "nonpayable",
      "type": "constructor"
    },
    {
      "anonymous": false,
      "inputs": [
        {
          "indexed": false,
          "internalType": "uint256",
          "name": "amount",
          "type": "uint256"
        },
        {
          "indexed": false,
          "internalType": "uint256",
          "name": "timeLock",
          "type": "uint256"
        },
        {
          "indexed": false,
          "internalType": "address",
          "name": "client",
          "type": "address"
        }
      ],
      "name": "locksuccess",
      "type": "event"
    },
    {
      "anonymous": false,
      "inputs": [
        {
          "indexed": false,
          "internalType": "uint256",
          "name": "amount",
          "type": "uint256"
        },
        {
          "indexed": false,
          "internalType": "address",
          "name": "client",
          "type": "address"
        },
        {
          "indexed": false,
          "internalType": "address",
          "name": "reserveClient",
          "type": "address"
        }
      ],
      "name": "withdrawReservesuccess",
      "type": "event"
    },
    {
      "anonymous": false,
      "inputs": [
        {
          "indexed": false,
          "internalType": "uint256",
          "name": "amount",
          "type": "uint256"
        },
        {
          "indexed": false,
          "internalType": "address",
          "name": "client",
          "type": "address"
        }
      ],
      "name": "withdrawsuccess",
      "type": "event"
    },
    {
      "inputs": [],
      "name": "_initialized",
      "outputs": [
        {
          "internalType": "bool",
          "name": "",
          "type": "bool"
        }
      ],
      "stateMutability": "view",
      "type": "function"
    },
    {
      "inputs": [
        {
          "internalType": "address",
          "name": "",
          "type": "address"
        }
      ],
      "name": "balances",
      "outputs": [
        {
          "internalType": "uint256",
          "name": "",
          "type": "uint256"
        }
      ],
      "stateMutability": "view",
      "type": "function"
    },
    {
      "inputs": [
        {
          "internalType": "address",
          "name": "",
          "type": "address"
        },
        {
          "internalType": "uint256",
          "name": "",
          "type": "uint256"
        }
      ],
      "name": "locking",
      "outputs": [
        {
          "internalType": "uint256",
          "name": "amount",
          "type": "uint256"
        },
        {
          "internalType": "uint256",
          "name": "timerStart",
          "type": "uint256"
        },
        {
          "internalType": "uint256",
          "name": "timerEnd",
          "type": "uint256"
        },
        {
          "internalType": "uint256",
          "name": "timeFirstWithdraw",
          "type": "uint256"
        },
        {
          "internalType": "uint256",
          "name": "timeForWithdraw",
          "type": "uint256"
        },
        {
          "internalType": "uint256",
          "name": "lastWithdraw",
          "type": "uint256"
        },
        {
          "internalType": "address",
          "name": "reserveAccount",
          "type": "address"
        },
        {
          "internalType": "bool",
          "name": "reserveActive",
          "type": "bool"
        }
      ],
      "stateMutability": "view",
      "type": "function"
    },
    {
      "inputs": [],
      "name": "owner",
      "outputs": [
        {
          "internalType": "address",
          "name": "",
          "type": "address"
        }
      ],
      "stateMutability": "view",
      "type": "function"
    },
    {
      "inputs": [],
      "name": "contractBalance",
      "outputs": [
        {
          "internalType": "uint256",
          "name": "",
          "type": "uint256"
        }
      ],
      "stateMutability": "view",
      "type": "function"
    },
    {
      "inputs": [],
      "name": "checktimestamp",
      "outputs": [
        {
          "internalType": "uint256",
          "name": "",
          "type": "uint256"
        }
      ],
      "stateMutability": "view",
      "type": "function"
    },
    {
      "inputs": [
        {
          "internalType": "uint256",
          "name": "order",
          "type": "uint256"
        }
      ],
      "name": "depositcheck",
      "outputs": [
        {
          "components": [
            {
              "internalType": "uint256",
              "name": "amount",
              "type": "uint256"
            },
            {
              "internalType": "uint256",
              "name": "timerStart",
              "type": "uint256"
            },
            {
              "internalType": "uint256",
              "name": "timerEnd",
              "type": "uint256"
            },
            {
              "internalType": "uint256",
              "name": "timeFirstWithdraw",
              "type": "uint256"
            },
            {
              "internalType": "uint256",
              "name": "timeForWithdraw",
              "type": "uint256"
            },
            {
              "internalType": "uint256",
              "name": "lastWithdraw",
              "type": "uint256"
            },
            {
              "internalType": "address",
              "name": "reserveAccount",
              "type": "address"
            },
            {
              "internalType": "bool",
              "name": "reserveActive",
              "type": "bool"
            }
          ],
          "internalType": "struct Storage.timeLock",
          "name": "",
          "type": "tuple"
        }
      ],
      "stateMutability": "view",
      "type": "function"
    },
    {
      "inputs": [
        {
          "internalType": "uint256",
          "name": "_timelock",
          "type": "uint256"
        },
        {
          "internalType": "uint256",
          "name": "_firstWithdraw",
          "type": "uint256"
        },
        {
          "internalType": "uint256",
          "name": "_nextWithdraw",
          "type": "uint256"
        },
        {
          "internalType": "address",
          "name": "_reserveAccount",
          "type": "address"
        }
      ],
      "name": "lockDay",
      "outputs": [],
      "stateMutability": "payable",
      "type": "function"
    },
    {
      "inputs": [
        {
          "internalType": "uint256",
          "name": "_timelock",
          "type": "uint256"
        },
        {
          "internalType": "uint256",
          "name": "_firstWithdraw",
          "type": "uint256"
        },
        {
          "internalType": "uint256",
          "name": "_nextWithdraw",
          "type": "uint256"
        },
        {
          "internalType": "address",
          "name": "_reserveAccount",
          "type": "address"
        }
      ],
      "name": "lockWeeks",
      "outputs": [],
      "stateMutability": "payable",
      "type": "function"
    },
    {
      "inputs": [
        {
          "internalType": "uint256",
          "name": "_timelock",
          "type": "uint256"
        },
        {
          "internalType": "uint256",
          "name": "_firstWithdraw",
          "type": "uint256"
        },
        {
          "internalType": "uint256",
          "name": "_nextWithdraw",
          "type": "uint256"
        },
        {
          "internalType": "address",
          "name": "_reserveAccount",
          "type": "address"
        }
      ],
      "name": "lockMonths",
      "outputs": [],
      "stateMutability": "payable",
      "type": "function"
    },
    {
      "inputs": [
        {
          "internalType": "uint256",
          "name": "order",
          "type": "uint256"
        }
      ],
      "name": "withdraw",
      "outputs": [],
      "stateMutability": "nonpayable",
      "type": "function"
    },
    {
      "inputs": [
        {
          "internalType": "uint256",
          "name": "order",
          "type": "uint256"
        }
      ],
      "name": "withdrawFirst",
      "outputs": [],
      "stateMutability": "nonpayable",
      "type": "function"
    },
    {
      "inputs": [
        {
          "internalType": "address",
          "name": "client",
          "type": "address"
        },
        {
          "internalType": "uint256",
          "name": "order",
          "type": "uint256"
        }
      ],
      "name": "ReserveOrderActivation",
      "outputs": [],
      "stateMutability": "nonpayable",
      "type": "function"
    },
    {
      "inputs": [
        {
          "internalType": "address",
          "name": "client",
          "type": "address"
        },
        {
          "internalType": "uint256",
          "name": "order",
          "type": "uint256"
        }
      ],
      "name": "ReserveWithdraw",
      "outputs": [],
      "stateMutability": "nonpayable",
      "type": "function"
    }
  ],
  "bytecode": "0x60806040523480156200001157600080fd5b50604051620038be380380620038be8339818101604052810190620000379190620000b9565b33600760006101000a81548173ffffffffffffffffffffffffffffffffffffffff021916908373ffffffffffffffffffffffffffffffffffffffff160217905550806000604051620000899062000127565b908152602001604051809103902081905550506200016d565b600081519050620000b38162000153565b92915050565b600060208284031215620000cc57600080fd5b6000620000dc84828501620000a2565b91505092915050565b6000620000f46003836200013e565b91507f66656500000000000000000000000000000000000000000000000000000000006000830152600382019050919050565b60006200013482620000e5565b9150819050919050565b600081905092915050565b6000819050919050565b6200015e8162000149565b81146200016a57600080fd5b50565b613741806200017d6000396000f3fe6080604052600436106100dd5760003560e01c8063743446051161007f5780638da5cb5b116100595780638da5cb5b146102a9578063bfd4ce5c146102d4578063e85df9ac146102f0578063ea16fa5f14610319576100dd565b806374344605146102185780637b8823fa146102415780638b7afe2e1461027e576100dd565b80632e1a7d4d116100bb5780632e1a7d4d1461018c5780633072cf60146101b557806331801695146101e05780633b48a5f1146101fc576100dd565b80630529afc4146100e257806311ecde2c1461010b57806327e235e31461014f575b600080fd5b3480156100ee57600080fd5b5061010960048036038101906101049190612c7c565b610344565b005b34801561011757600080fd5b50610132600480360381019061012d9190612c7c565b610bf2565b60405161014698979695949392919061343f565b60405180910390f35b34801561015b57600080fd5b5061017660048036038101906101719190612c53565b610c84565b604051610183919061338d565b60405180910390f35b34801561019857600080fd5b506101b360048036038101906101ae9190612cb8565b610c9c565b005b3480156101c157600080fd5b506101ca6113c2565b6040516101d791906131d6565b60405180910390f35b6101fa60048036038101906101f59190612ce1565b6113d5565b005b61021660048036038101906102119190612ce1565b61176f565b005b34801561022457600080fd5b5061023f600480360381019061023a9190612cb8565b611b0b565b005b34801561024d57600080fd5b5061026860048036038101906102639190612cb8565b612253565b6040516102759190613371565b60405180910390f35b34801561028a57600080fd5b50610293612425565b6040516102a0919061338d565b60405180910390f35b3480156102b557600080fd5b506102be61242d565b6040516102cb91906131bb565b60405180910390f35b6102ee60048036038101906102e99190612ce1565b612453565b005b3480156102fc57600080fd5b5061031760048036038101906103129190612c7c565b6127f3565b005b34801561032557600080fd5b5061032e612bc4565b60405161033b919061338d565b60405180910390f35b3373ffffffffffffffffffffffffffffffffffffffff168273ffffffffffffffffffffffffffffffffffffffff1614156103b3576040517f08c379a00000000000000000000000000000000000000000000000000000000081526004016103aa906132f1565b60405180910390fd5b3373ffffffffffffffffffffffffffffffffffffffff16600560008473ffffffffffffffffffffffffffffffffffffffff1673ffffffffffffffffffffffffffffffffffffffff1681526020019081526020016000208281548110610441577f4e487b7100000000000000000000000000000000000000000000000000000000600052603260045260246000fd5b906000526020600020906007020160060160009054906101000a900473ffffffffffffffffffffffffffffffffffffffff1673ffffffffffffffffffffffffffffffffffffffff16146104c9576040517f08c379a00000000000000000000000000000000000000000000000000000000081526004016104c090613251565b60405180910390fd5b60011515600560008473ffffffffffffffffffffffffffffffffffffffff1673ffffffffffffffffffffffffffffffffffffffff1681526020019081526020016000208281548110610544577f4e487b7100000000000000000000000000000000000000000000000000000000600052603260045260246000fd5b906000526020600020906007020160060160149054906101000a900460ff161515146105a5576040517f08c379a000000000000000000000000000000000000000000000000000000000815260040161059c906132d1565b60405180910390fd5b600560008373ffffffffffffffffffffffffffffffffffffffff1673ffffffffffffffffffffffffffffffffffffffff168152602001908152602001600020818154811061061c577f4e487b7100000000000000000000000000000000000000000000000000000000600052603260045260246000fd5b906000526020600020906007020160020154421015610670576040517f08c379a0000000000000000000000000000000000000000000000000000000008152600401610667906132b1565b60405180910390fd5b6000600560008473ffffffffffffffffffffffffffffffffffffffff1673ffffffffffffffffffffffffffffffffffffffff16815260200190815260200160002082815481106106e9577f4e487b7100000000000000000000000000000000000000000000000000000000600052603260045260246000fd5b90600052602060002090600702016000015490506000600560008573ffffffffffffffffffffffffffffffffffffffff1673ffffffffffffffffffffffffffffffffffffffff1681526020019081526020016000208381548110610776577f4e487b7100000000000000000000000000000000000000000000000000000000600052603260045260246000fd5b9060005260206000209060070201600001819055503373ffffffffffffffffffffffffffffffffffffffff166108fc829081150290604051600060405180830381858888f193505050501580156107d1573d6000803e3d6000fd5b5080600660008573ffffffffffffffffffffffffffffffffffffffff1673ffffffffffffffffffffffffffffffffffffffff1681526020019081526020016000205461081d91906135ba565b600660008573ffffffffffffffffffffffffffffffffffffffff1673ffffffffffffffffffffffffffffffffffffffff168152602001908152602001600020819055507f6fa67b9d47155b80d6376dfe234984050abe51ca75edc7748407e25288578c66818433604051610893939291906133d1565b60405180910390a160008290505b6001600560008673ffffffffffffffffffffffffffffffffffffffff1673ffffffffffffffffffffffffffffffffffffffff168152602001908152602001600020805490506108f091906135ba565b811015610af357600560008573ffffffffffffffffffffffffffffffffffffffff1673ffffffffffffffffffffffffffffffffffffffff16815260200190815260200160002060018261094391906134d9565b8154811061097a577f4e487b7100000000000000000000000000000000000000000000000000000000600052603260045260246000fd5b9060005260206000209060070201600560008673ffffffffffffffffffffffffffffffffffffffff1673ffffffffffffffffffffffffffffffffffffffff16815260200190815260200160002082815481106109ff577f4e487b7100000000000000000000000000000000000000000000000000000000600052603260045260246000fd5b90600052602060002090600702016000820154816000015560018201548160010155600282015481600201556003820154816003015560048201548160040155600582015481600501556006820160009054906101000a900473ffffffffffffffffffffffffffffffffffffffff168160060160006101000a81548173ffffffffffffffffffffffffffffffffffffffff021916908373ffffffffffffffffffffffffffffffffffffffff1602179055506006820160149054906101000a900460ff168160060160146101000a81548160ff0219169083151502179055509050508080610aeb90613636565b9150506108a1565b50600560008473ffffffffffffffffffffffffffffffffffffffff1673ffffffffffffffffffffffffffffffffffffffff168152602001908152602001600020805480610b69577f4e487b7100000000000000000000000000000000000000000000000000000000600052603160045260246000fd5b6001900381819060005260206000209060070201600080820160009055600182016000905560028201600090556003820160009055600482016000905560058201600090556006820160006101000a81549073ffffffffffffffffffffffffffffffffffffffff02191690556006820160146101000a81549060ff021916905550509055505050565b60056020528160005260406000208181548110610c0e57600080fd5b9060005260206000209060070201600091509150508060000154908060010154908060020154908060030154908060040154908060050154908060060160009054906101000a900473ffffffffffffffffffffffffffffffffffffffff16908060060160149054906101000a900460ff16905088565b60066020528060005260406000206000915090505481565b600560003373ffffffffffffffffffffffffffffffffffffffff1673ffffffffffffffffffffffffffffffffffffffff1681526020019081526020016000208181548110610d13577f4e487b7100000000000000000000000000000000000000000000000000000000600052603260045260246000fd5b906000526020600020906007020160020154421015610d67576040517f08c379a0000000000000000000000000000000000000000000000000000000008152600401610d5e90613211565b60405180910390fd5b60001515600560003373ffffffffffffffffffffffffffffffffffffffff1673ffffffffffffffffffffffffffffffffffffffff1681526020019081526020016000208281548110610de2577f4e487b7100000000000000000000000000000000000000000000000000000000600052603260045260246000fd5b906000526020600020906007020160060160149054906101000a900460ff16151514610e43576040517f08c379a0000000000000000000000000000000000000000000000000000000008152600401610e3a90613311565b60405180910390fd5b6000600560003373ffffffffffffffffffffffffffffffffffffffff1673ffffffffffffffffffffffffffffffffffffffff1681526020019081526020016000208281548110610ebc577f4e487b7100000000000000000000000000000000000000000000000000000000600052603260045260246000fd5b90600052602060002090600702016000015490506000600560003373ffffffffffffffffffffffffffffffffffffffff1673ffffffffffffffffffffffffffffffffffffffff1681526020019081526020016000208381548110610f49577f4e487b7100000000000000000000000000000000000000000000000000000000600052603260045260246000fd5b9060005260206000209060070201600001819055503373ffffffffffffffffffffffffffffffffffffffff166108fc829081150290604051600060405180830381858888f19350505050158015610fa4573d6000803e3d6000fd5b5080600660003373ffffffffffffffffffffffffffffffffffffffff1673ffffffffffffffffffffffffffffffffffffffff16815260200190815260200160002054610ff091906135ba565b600660003373ffffffffffffffffffffffffffffffffffffffff1673ffffffffffffffffffffffffffffffffffffffff168152602001908152602001600020819055507f1daff502185bbcafc1ab01b993a58debbb2985d2d10320c7209bac50c296f11181336040516110649291906133a8565b60405180910390a160008290505b6001600560003373ffffffffffffffffffffffffffffffffffffffff1673ffffffffffffffffffffffffffffffffffffffff168152602001908152602001600020805490506110c191906135ba565b8110156112c457600560003373ffffffffffffffffffffffffffffffffffffffff1673ffffffffffffffffffffffffffffffffffffffff16815260200190815260200160002060018261111491906134d9565b8154811061114b577f4e487b7100000000000000000000000000000000000000000000000000000000600052603260045260246000fd5b9060005260206000209060070201600560003373ffffffffffffffffffffffffffffffffffffffff1673ffffffffffffffffffffffffffffffffffffffff16815260200190815260200160002082815481106111d0577f4e487b7100000000000000000000000000000000000000000000000000000000600052603260045260246000fd5b90600052602060002090600702016000820154816000015560018201548160010155600282015481600201556003820154816003015560048201548160040155600582015481600501556006820160009054906101000a900473ffffffffffffffffffffffffffffffffffffffff168160060160006101000a81548173ffffffffffffffffffffffffffffffffffffffff021916908373ffffffffffffffffffffffffffffffffffffffff1602179055506006820160149054906101000a900460ff168160060160146101000a81548160ff02191690831515021790555090505080806112bc90613636565b915050611072565b50600560003373ffffffffffffffffffffffffffffffffffffffff1673ffffffffffffffffffffffffffffffffffffffff16815260200190815260200160002080548061133a577f4e487b7100000000000000000000000000000000000000000000000000000000600052603160045260246000fd5b6001900381819060005260206000209060070201600080820160009055600182016000905560028201600090556003820160009055600482016000905560058201600090556006820160006101000a81549073ffffffffffffffffffffffffffffffffffffffff02191690556006820160146101000a81549060ff0219169055505090555050565b600760149054906101000a900460ff1681565b60008060003490506000606460006040516113ef906131a6565b908152602001604051809103902054836114099190613560565b611413919061352f565b905062093a80886114249190613560565b4261142f91906134d9565b935062093a80876114409190613560565b4261144b91906134d9565b92506000604051806101000160405280838561146791906135ba565b8152602001428152602001868152602001858152602001888152602001600081526020018773ffffffffffffffffffffffffffffffffffffffff168152602001600015158152509050600560003373ffffffffffffffffffffffffffffffffffffffff1673ffffffffffffffffffffffffffffffffffffffff168152602001908152602001600020819080600181540180825580915050600190039060005260206000209060070201600090919091909150600082015181600001556020820151816001015560408201518160020155606082015181600301556080820151816004015560a0820151816005015560c08201518160060160006101000a81548173ffffffffffffffffffffffffffffffffffffffff021916908373ffffffffffffffffffffffffffffffffffffffff16021790555060e08201518160060160146101000a81548160ff021916908315150217905550505081836115ca91906135ba565b600660003373ffffffffffffffffffffffffffffffffffffffff1673ffffffffffffffffffffffffffffffffffffffff1681526020019081526020016000205461161491906134d9565b600660003373ffffffffffffffffffffffffffffffffffffffff1673ffffffffffffffffffffffffffffffffffffffff168152602001908152602001600020819055508160066000600760009054906101000a900473ffffffffffffffffffffffffffffffffffffffff1673ffffffffffffffffffffffffffffffffffffffff1673ffffffffffffffffffffffffffffffffffffffff168152602001908152602001600020546116c491906134d9565b60066000600760009054906101000a900473ffffffffffffffffffffffffffffffffffffffff1673ffffffffffffffffffffffffffffffffffffffff1673ffffffffffffffffffffffffffffffffffffffff168152602001908152602001600020819055507f1a81bdd9a7a8bb6fdf26fda7dbdfd85fd8969f51d23e9a4d2b84c516654c5e0934863360405161175c93929190613408565b60405180910390a1505050505050505050565b6000806000349050600060646000604051611789906131a6565b908152602001604051809103902054836117a39190613560565b6117ad919061352f565b9050630114db00886117bf9190613560565b426117ca91906134d9565b9350630114db00876117dc9190613560565b426117e791906134d9565b92506000604051806101000160405280838561180391906135ba565b8152602001428152602001868152602001858152602001888152602001600081526020018773ffffffffffffffffffffffffffffffffffffffff168152602001600015158152509050600560003373ffffffffffffffffffffffffffffffffffffffff1673ffffffffffffffffffffffffffffffffffffffff168152602001908152602001600020819080600181540180825580915050600190039060005260206000209060070201600090919091909150600082015181600001556020820151816001015560408201518160020155606082015181600301556080820151816004015560a0820151816005015560c08201518160060160006101000a81548173ffffffffffffffffffffffffffffffffffffffff021916908373ffffffffffffffffffffffffffffffffffffffff16021790555060e08201518160060160146101000a81548160ff0219169083151502179055505050818361196691906135ba565b600660003373ffffffffffffffffffffffffffffffffffffffff1673ffffffffffffffffffffffffffffffffffffffff168152602001908152602001600020546119b091906134d9565b600660003373ffffffffffffffffffffffffffffffffffffffff1673ffffffffffffffffffffffffffffffffffffffff168152602001908152602001600020819055508160066000600760009054906101000a900473ffffffffffffffffffffffffffffffffffffffff1673ffffffffffffffffffffffffffffffffffffffff1673ffffffffffffffffffffffffffffffffffffffff16815260200190815260200160002054611a6091906134d9565b60066000600760009054906101000a900473ffffffffffffffffffffffffffffffffffffffff1673ffffffffffffffffffffffffffffffffffffffff1673ffffffffffffffffffffffffffffffffffffffff168152602001908152602001600020819055507f1a81bdd9a7a8bb6fdf26fda7dbdfd85fd8969f51d23e9a4d2b84c516654c5e09348633604051611af893929190613408565b60405180910390a1505050505050505050565b600560003373ffffffffffffffffffffffffffffffffffffffff1673ffffffffffffffffffffffffffffffffffffffff1681526020019081526020016000208181548110611b82577f4e487b7100000000000000000000000000000000000000000000000000000000600052603260045260246000fd5b9060005260206000209060070201600201544210611bd5576040517f08c379a0000000000000000000000000000000000000000000000000000000008152600401611bcc90613331565b60405180910390fd5b6000600560003373ffffffffffffffffffffffffffffffffffffffff1673ffffffffffffffffffffffffffffffffffffffff1681526020019081526020016000208281548110611c4e577f4e487b7100000000000000000000000000000000000000000000000000000000600052603260045260246000fd5b906000526020600020906007020160010154600560003373ffffffffffffffffffffffffffffffffffffffff1673ffffffffffffffffffffffffffffffffffffffff1681526020019081526020016000208381548110611cd7577f4e487b7100000000000000000000000000000000000000000000000000000000600052603260045260246000fd5b906000526020600020906007020160020154611cf391906135ba565b9050600060646001600560003373ffffffffffffffffffffffffffffffffffffffff1673ffffffffffffffffffffffffffffffffffffffff1681526020019081526020016000208581548110611d72577f4e487b7100000000000000000000000000000000000000000000000000000000600052603260045260246000fd5b906000526020600020906007020160000154611d8e9190613560565b611d98919061352f565b9050600560003373ffffffffffffffffffffffffffffffffffffffff1673ffffffffffffffffffffffffffffffffffffffff1681526020019081526020016000208381548110611e11577f4e487b7100000000000000000000000000000000000000000000000000000000600052603260045260246000fd5b9060005260206000209060070201600301544211611e64576040517f08c379a0000000000000000000000000000000000000000000000000000000008152600401611e5b90613291565b60405180910390fd5b600560003373ffffffffffffffffffffffffffffffffffffffff1673ffffffffffffffffffffffffffffffffffffffff1681526020019081526020016000208381548110611edb577f4e487b7100000000000000000000000000000000000000000000000000000000600052603260045260246000fd5b90600052602060002090600702016003015482611ef8919061352f565b600560003373ffffffffffffffffffffffffffffffffffffffff1673ffffffffffffffffffffffffffffffffffffffff1681526020019081526020016000208481548110611f6f577f4e487b7100000000000000000000000000000000000000000000000000000000600052603260045260246000fd5b90600052602060002090600702016005015442611f8c91906135ba565b11611fcc576040517f08c379a0000000000000000000000000000000000000000000000000000000008152600401611fc390613351565b60405180910390fd5b42600560003373ffffffffffffffffffffffffffffffffffffffff1673ffffffffffffffffffffffffffffffffffffffff1681526020019081526020016000208481548110612044577f4e487b7100000000000000000000000000000000000000000000000000000000600052603260045260246000fd5b90600052602060002090600702016005018190555080600560003373ffffffffffffffffffffffffffffffffffffffff1673ffffffffffffffffffffffffffffffffffffffff16815260200190815260200160002084815481106120d1577f4e487b7100000000000000000000000000000000000000000000000000000000600052603260045260246000fd5b9060005260206000209060070201600001546120ed91906135ba565b600560003373ffffffffffffffffffffffffffffffffffffffff1673ffffffffffffffffffffffffffffffffffffffff1681526020019081526020016000208481548110612164577f4e487b7100000000000000000000000000000000000000000000000000000000600052603260045260246000fd5b9060005260206000209060070201600001819055503373ffffffffffffffffffffffffffffffffffffffff166108fc829081150290604051600060405180830381858888f193505050501580156121bf573d6000803e3d6000fd5b5080600660003373ffffffffffffffffffffffffffffffffffffffff1673ffffffffffffffffffffffffffffffffffffffff1681526020019081526020016000205461220b91906135ba565b600660003373ffffffffffffffffffffffffffffffffffffffff1673ffffffffffffffffffffffffffffffffffffffff16815260200190815260200160002081905550505050565b61225b612bcc565b600560003373ffffffffffffffffffffffffffffffffffffffff1673ffffffffffffffffffffffffffffffffffffffff168152602001908152602001600020805490508211156122e0576040517f08c379a00000000000000000000000000000000000000000000000000000000081526004016122d790613231565b60405180910390fd5b600560003373ffffffffffffffffffffffffffffffffffffffff1673ffffffffffffffffffffffffffffffffffffffff1681526020019081526020016000208281548110612357577f4e487b7100000000000000000000000000000000000000000000000000000000600052603260045260246000fd5b9060005260206000209060070201604051806101000160405290816000820154815260200160018201548152602001600282015481526020016003820154815260200160048201548152602001600582015481526020016006820160009054906101000a900473ffffffffffffffffffffffffffffffffffffffff1673ffffffffffffffffffffffffffffffffffffffff1673ffffffffffffffffffffffffffffffffffffffff1681526020016006820160149054906101000a900460ff1615151515815250509050919050565b600047905090565b600760009054906101000a900473ffffffffffffffffffffffffffffffffffffffff1681565b600080600034905060006064600060405161246d906131a6565b908152602001604051809103902054836124879190613560565b612491919061352f565b9050600081836124a191906135ba565b905062015180896124b29190613560565b426124bd91906134d9565b945062015180886124ce9190613560565b426124d991906134d9565b9350600060405180610100016040528084866124f591906135ba565b8152602001428152602001878152602001868152602001898152602001600081526020018873ffffffffffffffffffffffffffffffffffffffff168152602001600015158152509050600560003373ffffffffffffffffffffffffffffffffffffffff1673ffffffffffffffffffffffffffffffffffffffff168152602001908152602001600020819080600181540180825580915050600190039060005260206000209060070201600090919091909150600082015181600001556020820151816001015560408201518160020155606082015181600301556080820151816004015560a0820151816005015560c08201518160060160006101000a81548173ffffffffffffffffffffffffffffffffffffffff021916908373ffffffffffffffffffffffffffffffffffffffff16021790555060e08201518160060160146101000a81548160ff021916908315150217905550505081600660003373ffffffffffffffffffffffffffffffffffffffff1673ffffffffffffffffffffffffffffffffffffffff1681526020019081526020016000205461269791906134d9565b600660003373ffffffffffffffffffffffffffffffffffffffff1673ffffffffffffffffffffffffffffffffffffffff168152602001908152602001600020819055508260066000600760009054906101000a900473ffffffffffffffffffffffffffffffffffffffff1673ffffffffffffffffffffffffffffffffffffffff1673ffffffffffffffffffffffffffffffffffffffff1681526020019081526020016000205461274791906134d9565b60066000600760009054906101000a900473ffffffffffffffffffffffffffffffffffffffff1673ffffffffffffffffffffffffffffffffffffffff1673ffffffffffffffffffffffffffffffffffffffff168152602001908152602001600020819055507f1a81bdd9a7a8bb6fdf26fda7dbdfd85fd8969f51d23e9a4d2b84c516654c5e093487336040516127df93929190613408565b60405180910390a150505050505050505050565b3373ffffffffffffffffffffffffffffffffffffffff168273ffffffffffffffffffffffffffffffffffffffff161415612862576040517f08c379a0000000000000000000000000000000000000000000000000000000008152600401612859906132f1565b60405180910390fd5b3373ffffffffffffffffffffffffffffffffffffffff16600560008473ffffffffffffffffffffffffffffffffffffffff1673ffffffffffffffffffffffffffffffffffffffff16815260200190815260200160002082815481106128f0577f4e487b7100000000000000000000000000000000000000000000000000000000600052603260045260246000fd5b906000526020600020906007020160060160009054906101000a900473ffffffffffffffffffffffffffffffffffffffff1673ffffffffffffffffffffffffffffffffffffffff1614612978576040517f08c379a000000000000000000000000000000000000000000000000000000000815260040161296f90613251565b60405180910390fd5b60011515600560008473ffffffffffffffffffffffffffffffffffffffff1673ffffffffffffffffffffffffffffffffffffffff16815260200190815260200160002082815481106129f3577f4e487b7100000000000000000000000000000000000000000000000000000000600052603260045260246000fd5b906000526020600020906007020160060160149054906101000a900460ff1615151415612a55576040517f08c379a0000000000000000000000000000000000000000000000000000000008152600401612a4c906131f1565b60405180910390fd5b600560008373ffffffffffffffffffffffffffffffffffffffff1673ffffffffffffffffffffffffffffffffffffffff1681526020019081526020016000208181548110612acc577f4e487b7100000000000000000000000000000000000000000000000000000000600052603260045260246000fd5b9060005260206000209060070201600201544210612b1f576040517f08c379a0000000000000000000000000000000000000000000000000000000008152600401612b1690613271565b60405180910390fd5b6001600560008473ffffffffffffffffffffffffffffffffffffffff1673ffffffffffffffffffffffffffffffffffffffff1681526020019081526020016000208281548110612b98577f4e487b7100000000000000000000000000000000000000000000000000000000600052603260045260246000fd5b906000526020600020906007020160060160146101000a81548160ff0219169083151502179055505050565b600042905090565b604051806101000160405280600081526020016000815260200160008152602001600081526020016000815260200160008152602001600073ffffffffffffffffffffffffffffffffffffffff1681526020016000151581525090565b600081359050612c38816136dd565b92915050565b600081359050612c4d816136f4565b92915050565b600060208284031215612c6557600080fd5b6000612c7384828501612c29565b91505092915050565b60008060408385031215612c8f57600080fd5b6000612c9d85828601612c29565b9250506020612cae85828601612c3e565b9150509250929050565b600060208284031215612cca57600080fd5b6000612cd884828501612c3e565b91505092915050565b60008060008060808587031215612cf757600080fd5b6000612d0587828801612c3e565b9450506020612d1687828801612c3e565b9350506040612d2787828801612c3e565b9250506060612d3887828801612c29565b91505092959194509250565b612d4d816135ee565b82525050565b612d5c816135ee565b82525050565b612d6b81613600565b82525050565b612d7a81613600565b82525050565b6000612d8d6023836134bd565b91507f526573657276652077697468647261772020616c72656164792061637469766160008301527f74656400000000000000000000000000000000000000000000000000000000006020830152604082019050919050565b6000612df3600f836134bd565b91507f4e6f7420657870697265642079657400000000000000000000000000000000006000830152602082019050919050565b6000612e336004836134bd565b91507f4e6f7065000000000000000000000000000000000000000000000000000000006000830152602082019050919050565b6000612e736013836134bd565b91507f596f7520617265206e6f7420616c6c6f776564000000000000000000000000006000830152602082019050919050565b6000612eb3600f836134bd565b91507f416c7265616479206578706972656400000000000000000000000000000000006000830152602082019050919050565b6000612ef3601b836134bd565b91507f43616e277420737461727420746f2077697468647261772079657400000000006000830152602082019050919050565b6000612f33600f836134bd565b91507f4e6f7420796574206578706972656400000000000000000000000000000000006000830152602082019050919050565b6000612f73601e836134bd565b91507f52657365727665207769746864726177206e6f742d61637469766174656400006000830152602082019050919050565b6000612fb3601c836134bd565b91507f596f752063616e277420626520796f7572206f776e20636c69656e74000000006000830152602082019050919050565b6000612ff36003836134ce565b91507f66656500000000000000000000000000000000000000000000000000000000006000830152600382019050919050565b6000613033601a836134bd565b91507f52657365727665207769746864726177206163746976617465640000000000006000830152602082019050919050565b6000613073601a836134bd565b91507f4e6f70652c20796f752063616e20776974686472617720616c6c0000000000006000830152602082019050919050565b60006130b3601b836134bd565b91507f416c72656164792077697468647261772074686973206d6f6e746800000000006000830152602082019050919050565b610100820160008201516130fd6000850182613188565b5060208201516131106020850182613188565b5060408201516131236040850182613188565b5060608201516131366060850182613188565b5060808201516131496080850182613188565b5060a082015161315c60a0850182613188565b5060c082015161316f60c0850182612d44565b5060e082015161318260e0850182612d62565b50505050565b6131918161362c565b82525050565b6131a08161362c565b82525050565b60006131b182612fe6565b9150819050919050565b60006020820190506131d06000830184612d53565b92915050565b60006020820190506131eb6000830184612d71565b92915050565b6000602082019050818103600083015261320a81612d80565b9050919050565b6000602082019050818103600083015261322a81612de6565b9050919050565b6000602082019050818103600083015261324a81612e26565b9050919050565b6000602082019050818103600083015261326a81612e66565b9050919050565b6000602082019050818103600083015261328a81612ea6565b9050919050565b600060208201905081810360008301526132aa81612ee6565b9050919050565b600060208201905081810360008301526132ca81612f26565b9050919050565b600060208201905081810360008301526132ea81612f66565b9050919050565b6000602082019050818103600083015261330a81612fa6565b9050919050565b6000602082019050818103600083015261332a81613026565b9050919050565b6000602082019050818103600083015261334a81613066565b9050919050565b6000602082019050818103600083015261336a816130a6565b9050919050565b60006101008201905061338760008301846130e6565b92915050565b60006020820190506133a26000830184613197565b92915050565b60006040820190506133bd6000830185613197565b6133ca6020830184612d53565b9392505050565b60006060820190506133e66000830186613197565b6133f36020830185612d53565b6134006040830184612d53565b949350505050565b600060608201905061341d6000830186613197565b61342a6020830185613197565b6134376040830184612d53565b949350505050565b600061010082019050613455600083018b613197565b613462602083018a613197565b61346f6040830189613197565b61347c6060830188613197565b6134896080830187613197565b61349660a0830186613197565b6134a360c0830185612d53565b6134b060e0830184612d71565b9998505050505050505050565b600082825260208201905092915050565b600081905092915050565b60006134e48261362c565b91506134ef8361362c565b9250827fffffffffffffffffffffffffffffffffffffffffffffffffffffffffffffffff038211156135245761352361367f565b5b828201905092915050565b600061353a8261362c565b91506135458361362c565b925082613555576135546136ae565b5b828204905092915050565b600061356b8261362c565b91506135768361362c565b9250817fffffffffffffffffffffffffffffffffffffffffffffffffffffffffffffffff04831182151516156135af576135ae61367f565b5b828202905092915050565b60006135c58261362c565b91506135d08361362c565b9250828210156135e3576135e261367f565b5b828203905092915050565b60006135f98261360c565b9050919050565b60008115159050919050565b600073ffffffffffffffffffffffffffffffffffffffff82169050919050565b6000819050919050565b60006136418261362c565b91507fffffffffffffffffffffffffffffffffffffffffffffffffffffffffffffffff8214156136745761367361367f565b5b600182019050919050565b7f4e487b7100000000000000000000000000000000000000000000000000000000600052601160045260246000fd5b7f4e487b7100000000000000000000000000000000000000000000000000000000600052601260045260246000fd5b6136e6816135ee565b81146136f157600080fd5b50565b6136fd8161362c565b811461370857600080fd5b5056fea26469706673582212205690ff4fb36e0513b5c49323c70e3daefc347b24c14a6d393245d55e697dbdcf64736f6c63430008000033",
  "immutableReferences": {},
  "source": "// SPDX-License-Identifier: MIT\r\npragma solidity >=0.4.22 <0.9.5;\r\npragma experimental ABIEncoderV2;\r\n\r\nimport \"./Storage.sol\";\r\n\r\n// need to make a function for every time option?\r\n// there is any librarie?\r\n// not using msg.value\r\ncontract Bank is Storage{\r\n\r\n    constructor(uint256 fee) public{\r\n        owner = msg.sender;\r\n        _uintStorage[\"fee\"] = fee;\r\n    }\r\n\r\n    event locksuccess(uint256 amount, uint256 timeLock, address client);\r\n    event withdrawsuccess(uint256 amount, address client);\r\n    event withdrawReservesuccess(uint256 amount, address client, address reserveClient);\r\n\r\n    function contractBalance() public view returns(uint256){return address(this).balance;}\r\n\r\n    function checktimestamp() public view returns(uint256){\r\n        return block.timestamp;\r\n    }\r\n    \r\n    function depositcheck(uint256 order) public view returns(timeLock memory){\r\n       require(order <= locking[msg.sender].length, \"Nope\"); //onlyOwnlocking but there is the mapping, it is \"Private\"\r\n       return(locking[msg.sender][order]);\r\n    }\r\n\r\n    function lockDay(uint256 _timelock, uint256 _firstWithdraw, uint256 _nextWithdraw, address _reserveAccount /*amount?*/) public payable { //add fee/cost\r\n        uint256 endlock;\r\n        uint256 firstWithdraw;\r\n        uint256 amount = msg.value; // -fee\r\n        uint256 fee = (amount * _uintStorage[\"fee\"])/ 100;\r\n        uint256 tot = amount - fee;\r\n        endlock = block.timestamp + (_timelock * 1 days);\r\n        firstWithdraw = block.timestamp + (_firstWithdraw * 1 days);\r\n\r\n        timeLock memory newlock = timeLock(amount - fee, block.timestamp, endlock, firstWithdraw, _nextWithdraw, 0, _reserveAccount, false);\r\n\r\n        locking[msg.sender].push(newlock);\r\n        balances[msg.sender] = balances[msg.sender] + tot;\r\n        balances[owner] = balances[owner] + fee;\r\n        emit locksuccess(msg.value, endlock, msg.sender);\r\n    }\r\n    function lockWeeks(uint256 _timelock, uint256 _firstWithdraw, uint256 _nextWithdraw, address _reserveAccount  /*amount?*/) public payable { //add fee/cost\r\n        uint256 endlock;\r\n        uint256 firstWithdraw;\r\n        uint256 amount = msg.value; // -fee\r\n        uint256 fee = (amount * _uintStorage[\"fee\"])/ 100;\r\n        endlock = block.timestamp + (_timelock * 1 weeks);\r\n        firstWithdraw = block.timestamp + (_firstWithdraw * 1 weeks);\r\n\r\n        timeLock memory newlock = timeLock(amount - fee, block.timestamp, endlock, firstWithdraw, _nextWithdraw, 0, _reserveAccount, false);\r\n\r\n        locking[msg.sender].push(newlock);\r\n        balances[msg.sender] = balances[msg.sender] + (amount - fee);\r\n        balances[owner] = balances[owner] + fee;\r\n        emit locksuccess(msg.value, endlock, msg.sender);\r\n    }\r\n\r\n    function lockMonths(uint256 _timelock, uint256 _firstWithdraw, uint256 _nextWithdraw, address _reserveAccount /*amount?*/) public payable { //add fee/cost\r\n        uint256 endlock;\r\n        uint256 firstWithdraw;\r\n        uint256 amount = msg.value; // -fee\r\n        uint256 fee = (amount * _uintStorage[\"fee\"])/ 100;\r\n        endlock = block.timestamp + (_timelock * (30* 1 weeks));\r\n        firstWithdraw = block.timestamp + (_firstWithdraw * (30* 1 weeks));\r\n\r\n        timeLock memory newlock = timeLock(amount - fee, block.timestamp, endlock, firstWithdraw, _nextWithdraw, 0, _reserveAccount, false);\r\n\r\n        locking[msg.sender].push(newlock);\r\n        balances[msg.sender] = balances[msg.sender] + (amount - fee);\r\n        balances[owner] = balances[owner] + fee;\r\n        emit locksuccess(msg.value, endlock, msg.sender);\r\n    }\r\n\r\n    function withdraw(uint256 order) public { \r\n        require(block.timestamp >= locking[msg.sender][order].timerEnd, \"Not expired yet\");\r\n        require(locking[msg.sender][order].reserveActive == false, \"Reserve withdraw activated\");\r\n        uint256 amount = locking[msg.sender][order].amount;\r\n        locking[msg.sender][order].amount = 0;\r\n        payable(msg.sender).transfer(amount);\r\n        balances[msg.sender] = balances[msg.sender] - amount;\r\n        emit withdrawsuccess(amount, msg.sender);\r\n        {\r\n            for(uint256 i = order; i < locking[msg.sender].length - 1; i++){\r\n            locking[msg.sender][i] = locking[msg.sender][i+1]; \r\n            }\r\n            locking[msg.sender].pop();\r\n        }\r\n    }\r\n\r\n    function withdrawFirst(uint256 order) public{\r\n\r\n        require(block.timestamp < locking[msg.sender][order].timerEnd, \"Nope, you can withdraw all\");\r\n        \r\n        uint256 Timerstats = locking[msg.sender][order].timerEnd - locking[msg.sender][order].timerStart;\r\n        uint256 amount = (locking[msg.sender][order].amount *1)/ 100;\r\n\r\n        require(block.timestamp > locking[msg.sender][order].timeFirstWithdraw, \"Can't start to withdraw yet\");\r\n        require(block.timestamp - locking[msg.sender][order].lastWithdraw > (Timerstats / locking[msg.sender][order].timeFirstWithdraw), \"Already withdraw this month\");\r\n\r\n        locking[msg.sender][order].lastWithdraw = block.timestamp;\r\n        locking[msg.sender][order].amount = locking[msg.sender][order].amount - amount;\r\n        payable(msg.sender).transfer(amount);\r\n        balances[msg.sender] = balances[msg.sender] - amount;\r\n    }\r\n\r\n    function ReserveOrderActivation(address client, uint256 order) public{\r\n        require(client != msg.sender, \"You can't be your own client\");\r\n        require(locking[client][order].reserveAccount == msg.sender, \"You are not allowed\");\r\n        require(locking[client][order].reserveActive != true, \"Reserve withdraw  already activated\");\r\n        require(block.timestamp < locking[client][order].timerEnd, \"Already expired\");\r\n        locking[client][order].reserveActive = true;\r\n    }\r\n\r\n    function ReserveWithdraw(address client, uint256 order) public{\r\n        require(client != msg.sender, \"You can't be your own client\");\r\n        require(locking[client][order].reserveAccount == msg.sender, \"You are not allowed\");\r\n        require(locking[client][order].reserveActive == true, \"Reserve withdraw not-activated\");\r\n        require(block.timestamp >= locking[client][order].timerEnd, \"Not yet expired\");\r\n\r\n        uint256 amount = locking[client][order].amount;\r\n        locking[client][order].amount = 0;\r\n        payable(msg.sender).transfer(amount);\r\n        balances[client] = balances[client] - amount;\r\n        emit withdrawReservesuccess(amount, client, msg.sender);\r\n        {\r\n            for(uint256 i = order; i < locking[client].length - 1; i++){\r\n            locking[client][i] = locking[client][i+1]; \r\n            }\r\n            locking[client].pop();\r\n        }\r\n    }\r\n    \r\n    //function allowance + use amount and not msg.value\r\n}\r\n",
  "sourcePath": "C:\\Users\\giova\\Smart contracts\\bank\\contracts\\Bank.sol",
  "compiler": {
    "name": "solc",
    "version": "0.8.0+commit.c7dfd78e.Emscripten.clang"
  },
  "schemaVersion": "3.4.3",
  "updatedAt": "2022-03-06T16:27:43.143Z",
  "devdoc": {
    "kind": "dev",
    "methods": {},
    "version": 1
  },
  "userdoc": {
    "kind": "user",
    "methods": {},
    "version": 1
  }
}