{
  "contractName": "Proxy",
  "abi": [
    {
      "inputs": [
        {
          "internalType": "address",
          "name": "_currentAddress",
          "type": "address"
        }
      ],
      "stateMutability": "nonpayable",
      "type": "constructor"
    },
    {
      "stateMutability": "payable",
      "type": "fallback"
    },
    {
      "inputs": [],
      "name": "_initialized",
      "outputs": [
        {
          "internalType": "bool",
          "name": "",
          "type": "bool"
        }
      ],
      "stateMutability": "view",
      "type": "function"
    },
    {
      "inputs": [
        {
          "internalType": "address",
          "name": "",
          "type": "address"
        }
      ],
      "name": "balances",
      "outputs": [
        {
          "internalType": "uint256",
          "name": "",
          "type": "uint256"
        }
      ],
      "stateMutability": "view",
      "type": "function"
    },
    {
      "inputs": [
        {
          "internalType": "address",
          "name": "",
          "type": "address"
        },
        {
          "internalType": "uint256",
          "name": "",
          "type": "uint256"
        }
      ],
      "name": "locking",
      "outputs": [
        {
          "internalType": "uint256",
          "name": "amount",
          "type": "uint256"
        },
        {
          "internalType": "uint256",
          "name": "timerStart",
          "type": "uint256"
        },
        {
          "internalType": "uint256",
          "name": "timerEnd",
          "type": "uint256"
        },
        {
          "internalType": "uint256",
          "name": "timeFirstWithdraw",
          "type": "uint256"
        },
        {
          "internalType": "uint256",
          "name": "timeForWithdraw",
          "type": "uint256"
        },
        {
          "internalType": "uint256",
          "name": "lastWithdraw",
          "type": "uint256"
        },
        {
          "internalType": "address",
          "name": "reserveAccount",
          "type": "address"
        },
        {
          "internalType": "bool",
          "name": "reserveActive",
          "type": "bool"
        }
      ],
      "stateMutability": "view",
      "type": "function"
    },
    {
      "inputs": [],
      "name": "owner",
      "outputs": [
        {
          "internalType": "address",
          "name": "",
          "type": "address"
        }
      ],
      "stateMutability": "view",
      "type": "function"
    },
    {
      "inputs": [
        {
          "internalType": "address",
          "name": "_newAddress",
          "type": "address"
        }
      ],
      "name": "upgrade",
      "outputs": [],
      "stateMutability": "nonpayable",
      "type": "function"
    }
  ],
  "bytecode": "0x608060405234801561001057600080fd5b506040516107083803806107088339818101604052810190610032919061008e565b80600860006101000a81548173ffffffffffffffffffffffffffffffffffffffff021916908373ffffffffffffffffffffffffffffffffffffffff16021790555050610100565b600081519050610088816100e9565b92915050565b6000602082840312156100a057600080fd5b60006100ae84828501610079565b91505092915050565b60006100c2826100c9565b9050919050565b600073ffffffffffffffffffffffffffffffffffffffff82169050919050565b6100f2816100b7565b81146100fd57600080fd5b50565b6105f98061010f6000396000f3fe60806040526004361061004e5760003560e01c80630900f0101461014157806311ecde2c1461016a57806327e235e3146101ae5780633072cf60146101eb5780638da5cb5b146102165761004f565b5b6000600860009054906101000a900473ffffffffffffffffffffffffffffffffffffffff169050600073ffffffffffffffffffffffffffffffffffffffff16600860009054906101000a900473ffffffffffffffffffffffffffffffffffffffff1673ffffffffffffffffffffffffffffffffffffffff1614156100d257600080fd5b600080368080601f016020809104026020016040519081016040528093929190818152602001838380828437600081840152601f19601f820116905080830192505050505050509050600080825160208401855af43d604051816000823e826000811461013d578282f35b8282fd5b34801561014d57600080fd5b50610168600480360381019061016391906103ec565b610241565b005b34801561017657600080fd5b50610191600480360381019061018c9190610415565b6102df565b6040516101a59897969594939291906104cf565b60405180910390f35b3480156101ba57600080fd5b506101d560048036038101906101d091906103ec565b610371565b6040516101e291906104b4565b60405180910390f35b3480156101f757600080fd5b50610200610389565b60405161020d9190610499565b60405180910390f35b34801561022257600080fd5b5061022b61039c565b604051610238919061047e565b60405180910390f35b600760009054906101000a900473ffffffffffffffffffffffffffffffffffffffff1673ffffffffffffffffffffffffffffffffffffffff163373ffffffffffffffffffffffffffffffffffffffff161461029b57600080fd5b80600860006101000a81548173ffffffffffffffffffffffffffffffffffffffff021916908373ffffffffffffffffffffffffffffffffffffffff16021790555050565b600560205281600052604060002081815481106102fb57600080fd5b9060005260206000209060070201600091509150508060000154908060010154908060020154908060030154908060040154908060050154908060060160009054906101000a900473ffffffffffffffffffffffffffffffffffffffff16908060060160149054906101000a900460ff16905088565b60066020528060005260406000206000915090505481565b600760149054906101000a900460ff1681565b600760009054906101000a900473ffffffffffffffffffffffffffffffffffffffff1681565b6000813590506103d181610595565b92915050565b6000813590506103e6816105ac565b92915050565b6000602082840312156103fe57600080fd5b600061040c848285016103c2565b91505092915050565b6000806040838503121561042857600080fd5b6000610436858286016103c2565b9250506020610447858286016103d7565b9150509250929050565b61045a8161054d565b82525050565b6104698161055f565b82525050565b6104788161058b565b82525050565b60006020820190506104936000830184610451565b92915050565b60006020820190506104ae6000830184610460565b92915050565b60006020820190506104c9600083018461046f565b92915050565b6000610100820190506104e5600083018b61046f565b6104f2602083018a61046f565b6104ff604083018961046f565b61050c606083018861046f565b610519608083018761046f565b61052660a083018661046f565b61053360c0830185610451565b61054060e0830184610460565b9998505050505050505050565b60006105588261056b565b9050919050565b60008115159050919050565b600073ffffffffffffffffffffffffffffffffffffffff82169050919050565b6000819050919050565b61059e8161054d565b81146105a957600080fd5b50565b6105b58161058b565b81146105c057600080fd5b5056fea2646970667358221220569e1f91d09fb996a91cf07e3511c1f10ec54176f8fa87ca1b4a8edcf9127bee64736f6c63430008000033",
  "immutableReferences": {},
  "source": "// SPDX-License-Identifier: MIT\r\npragma solidity >=0.4.22 <1.0.0;\r\n\r\nimport \"./Storage.sol\";\r\n\r\ncontract Proxy is Storage {\r\n\r\n  address currentAddress;\r\n\r\n  constructor(address _currentAddress) public {\r\n    currentAddress = _currentAddress;\r\n  }\r\n  function upgrade(address _newAddress) public {\r\n    require(msg.sender == owner);\r\n    currentAddress = _newAddress;\r\n  }\r\n\r\n  //FALLBACK FUNCTION.\r\n  fallback() payable external {\r\n    address implementation = currentAddress;\r\n    require(currentAddress != address(0));\r\n    bytes memory data = msg.data;\r\n\r\n    //DELEGATECALL EVERY FUNCTION CALL\r\n    assembly {\r\n      let result := delegatecall(gas(), implementation, add(data, 0x20), mload(data), 0, 0)\r\n      let size := returndatasize()\r\n      let ptr := mload(0x40)\r\n      returndatacopy(ptr, 0, size)\r\n      switch result\r\n      case 0 {revert(ptr, size)}\r\n      default {return(ptr, size)}\r\n    }\r\n  }\r\n}",
  "sourcePath": "C:\\Users\\giova\\Smart contracts\\bank\\contracts\\Proxy.sol",
  "compiler": {
    "name": "solc",
    "version": "0.8.0+commit.c7dfd78e.Emscripten.clang"
  },
  "schemaVersion": "3.4.3",
  "updatedAt": "2022-03-06T16:27:43.228Z",
  "devdoc": {
    "kind": "dev",
    "methods": {},
    "version": 1
  },
  "userdoc": {
    "kind": "user",
    "methods": {},
    "version": 1
  }
}