{
  "contractName": "Storage",
  "abi": [
    {
      "inputs": [],
      "name": "_initialized",
      "outputs": [
        {
          "internalType": "bool",
          "name": "",
          "type": "bool"
        }
      ],
      "stateMutability": "view",
      "type": "function"
    },
    {
      "inputs": [
        {
          "internalType": "address",
          "name": "",
          "type": "address"
        }
      ],
      "name": "balances",
      "outputs": [
        {
          "internalType": "uint256",
          "name": "",
          "type": "uint256"
        }
      ],
      "stateMutability": "view",
      "type": "function"
    },
    {
      "inputs": [
        {
          "internalType": "address",
          "name": "",
          "type": "address"
        },
        {
          "internalType": "uint256",
          "name": "",
          "type": "uint256"
        }
      ],
      "name": "locking",
      "outputs": [
        {
          "internalType": "uint256",
          "name": "amount",
          "type": "uint256"
        },
        {
          "internalType": "uint256",
          "name": "timerStart",
          "type": "uint256"
        },
        {
          "internalType": "uint256",
          "name": "timerEnd",
          "type": "uint256"
        },
        {
          "internalType": "uint256",
          "name": "timeFirstWithdraw",
          "type": "uint256"
        },
        {
          "internalType": "uint256",
          "name": "timeForWithdraw",
          "type": "uint256"
        },
        {
          "internalType": "uint256",
          "name": "lastWithdraw",
          "type": "uint256"
        },
        {
          "internalType": "address",
          "name": "reserveAccount",
          "type": "address"
        },
        {
          "internalType": "bool",
          "name": "reserveActive",
          "type": "bool"
        }
      ],
      "stateMutability": "view",
      "type": "function"
    },
    {
      "inputs": [],
      "name": "owner",
      "outputs": [
        {
          "internalType": "address",
          "name": "",
          "type": "address"
        }
      ],
      "stateMutability": "view",
      "type": "function"
    }
  ],
  "bytecode": "0x608060405234801561001057600080fd5b5061040e806100206000396000f3fe608060405234801561001057600080fd5b506004361061004c5760003560e01c806311ecde2c1461005157806327e235e3146100885780633072cf60146100b85780638da5cb5b146100d6575b600080fd5b61006b6004803603810190610066919061022a565b6100f4565b60405161007f9897969594939291906102e4565b60405180910390f35b6100a2600480360381019061009d9190610201565b610186565b6040516100af91906102c9565b60405180910390f35b6100c061019e565b6040516100cd91906102ae565b60405180910390f35b6100de6101b1565b6040516100eb9190610293565b60405180910390f35b6005602052816000526040600020818154811061011057600080fd5b9060005260206000209060070201600091509150508060000154908060010154908060020154908060030154908060040154908060050154908060060160009054906101000a900473ffffffffffffffffffffffffffffffffffffffff16908060060160149054906101000a900460ff16905088565b60066020528060005260406000206000915090505481565b600760149054906101000a900460ff1681565b600760009054906101000a900473ffffffffffffffffffffffffffffffffffffffff1681565b6000813590506101e6816103aa565b92915050565b6000813590506101fb816103c1565b92915050565b60006020828403121561021357600080fd5b6000610221848285016101d7565b91505092915050565b6000806040838503121561023d57600080fd5b600061024b858286016101d7565b925050602061025c858286016101ec565b9150509250929050565b61026f81610362565b82525050565b61027e81610374565b82525050565b61028d816103a0565b82525050565b60006020820190506102a86000830184610266565b92915050565b60006020820190506102c36000830184610275565b92915050565b60006020820190506102de6000830184610284565b92915050565b6000610100820190506102fa600083018b610284565b610307602083018a610284565b6103146040830189610284565b6103216060830188610284565b61032e6080830187610284565b61033b60a0830186610284565b61034860c0830185610266565b61035560e0830184610275565b9998505050505050505050565b600061036d82610380565b9050919050565b60008115159050919050565b600073ffffffffffffffffffffffffffffffffffffffff82169050919050565b6000819050919050565b6103b381610362565b81146103be57600080fd5b50565b6103ca816103a0565b81146103d557600080fd5b5056fea26469706673582212208d60cb87e6e9a5c3cbf31b60d101cc13ca9bf32ba87eb728f7513a11a428b99264736f6c63430008000033",
  "immutableReferences": {},
  "source": "// SPDX-License-Identifier: MIT\r\npragma solidity >=0.4.22 <1.0.0;\r\n\r\ncontract Storage {\r\n  mapping (string => uint256) _uintStorage;\r\n  mapping (string => address) _addressStorage;\r\n  mapping (string => bool) _boolStorage;\r\n  mapping (string => string) _stringStorage;\r\n  mapping (string => bytes4) _bytesStorage;\r\n\r\n  mapping(address=>timeLock[]) public locking;\r\n  mapping(address => uint256) public balances;\r\n  \r\n  struct timeLock{\r\n    uint256 amount;\r\n    uint256 timerStart;\r\n    uint256 timerEnd;\r\n    uint256 timeFirstWithdraw;\r\n    uint256 timeForWithdraw;\r\n    uint256 lastWithdraw;\r\n    address reserveAccount;\r\n    bool reserveActive;\r\n  }\r\n  address public owner;\r\n  bool public _initialized;\r\n}\r\n\r\n//altWithdraw\r\n// test -->timetravel? and other\r\n    //function allowance + use amount and not msg.value\r\n",
  "sourcePath": "C:\\Users\\giova\\Smart contracts\\bank\\contracts\\Storage.sol",
  "compiler": {
    "name": "solc",
    "version": "0.8.0+commit.c7dfd78e.Emscripten.clang"
  },
  "schemaVersion": "3.4.3",
  "updatedAt": "2022-03-06T16:27:43.239Z",
  "devdoc": {
    "kind": "dev",
    "methods": {},
    "version": 1
  },
  "userdoc": {
    "kind": "user",
    "methods": {},
    "version": 1
  }
}